:020000040800F2
:1000000000000220190900085508000857080008D8
:10001000590800085B0800085D080008000000009F
:100020000000000000000000000000005F08000861
:100030006108000800000000630800086508000867
:1000400069090008690900086909000869090008C8
:1000500069090008690900086909000869090008B8
:1000600069090008690900086909000869090008A8
:100070006909000869090008690900086909000898
:100080006909000869090008690900086909000888
:100090006909000869090008690900086909000878
:1000A0006909000869090008690900086909000868
:1000B0006909000869090008690900086909000858
:1000C0006909000869090008690900086909000848
:1000D0006909000869090008690900086909000838
:1000E0006909000869090008690900086909000828
:1000F0006909000869090008690900086909000818
:100100006909000869090008690900086909000807
:1001100069090008690900086909000869090008F7
:1001200069090008690900086909000869090008E7
:1001300069090008690900086909000869090008D7
:1001400069090008690900086909000869090008C7
:1001500069090008690900086909000869090008B7
:1001600069090008690900086909000869090008A7
:100170006909000869090008690900080000000011
:08018000690900086909000883
:1001880010B5054C237833B9044B13B10448AFF3C9
:1001980000800123237010BD3C04002000000000F3
:1001A8000018000808B5034B1BB103490348AFF317
:1001B800008008BD0000000040040020001800086E
:1001C80053B94AB9002908BF00281CBF4FF0FF31B6
:1001D8004FF0FF3000F074B9ADF1080C6DE904CEB2
:1001E80000F006F8DDF804E0DDE9022304B070470A
:1001F8002DE9F047089E0D4604468846002B4DD150
:100208008A42944668D9B2FA82F252B101FA02F3EC
:10021800C2F1200120FA01F10CFA02FC41EA0308BC
:1002280094404FEA1C45210CB8FBF5FE1FFA8CF7E9
:1002380005FB1E8341EA03430EFB07F199420BD9E4
:100248001CEB03030EF1FF3080F01E81994240F24F
:100258001B81AEF1020E63445B1AA4B2B3FBF5F046
:1002680005FB103344EA034400FB07F7A7420AD909
:100278001CEB040400F1FF3380F00881A74240F230
:10028800058164440238E41B40EA0E4000211EB197
:10029800D4400023C6E90043BDE8F0878B4208D963
:1002A800002E00F0EE800021C6E900050846BDE8F2
:1002B800F087B3FA83F100294AD1AB4202D38242D4
:1002C80000F2F980841A65EB030301209846002E9A
:1002D800E2D0C6E90048DFE702B9FFDEB2FA82F2EF
:1002E800002A40F09180A1EB0C054FEA1C471FFA49
:1002F8008CFE0121B5FBF7F307FB1350250C45EAEB
:1003080000450EFB03F0A84208D91CEB050503F1D4
:10031800FF3802D2A84200F2CB8043462D1AA4B27D
:10032800B5FBF7F007FB105544EA05440EFB00FE49
:10033800A64508D91CEB040400F1FF3502D2A645F6
:1003480000F2BB802846A4EB0E0440EA03409EE777
:10035800C1F120078B4022FA07FC4CEA030C20FA73
:1003680007F405FA01F31C43FD404FEA1C4900FA63
:1003780001F3B5FBF9F8200C1FFA8CFE09FB1855A0
:1003880040EA054508FB0EF0A84202FA01F20BD933
:100398001CEB050508F1FF3A80F08880A84240F27E
:1003A8008580A8F1020865442D1AA4B2B5FBF9F0BE
:1003B80009FB105544EA054500FB0EFEAE4508D979
:1003C8001CEB050500F1FF346CD2AE456AD9023842
:1003D800654440EA0840A0FB0294A5EB0E05A5423F
:1003E800C846A64656D353D05EB1B3EB080265EBB8
:1003F8000E0505FA07F722FA01F3CD401F43C6E9B7
:1004080000750021BDE8F087C2F1200320FA03F14E
:100418000CFA02FC25FA03F395400D434FEA1C47FA
:100428001FFA8CFEB3FBF7F107FB11302B0C43EAE4
:10043800004301FB0EF0984204FA02F408D91CEBC1
:10044800030301F1FF382FD298422DD902396344B2
:100458001B1AADB2B3FBF7F007FB103345EA0345AF
:1004680000FB0EF3AB4208D91CEB050500F1FF3881
:1004780016D2AB4214D902386544ED1A40EA01415C
:1004880038E73146304607E78646E5E61846FAE695
:100498004B45A9D2B9EB020864EB0C0E0138A3E76F
:1004A8004046EAE7204694E74146D1E7D0467BE755
:1004B800023B654432E7084609E76444023842E7EC
:1004C800704700BF2DE9F04186B0002301930293E5
:1004D800039304930593224B1B6813B106B0BDE840
:1004E800F0811F4B01221A60002600961D4B9A6B63
:1004F80042F001029A639B6B03F001030093009B97
:100508004FF48058CDF804800227029703250495FC
:100518000C24059401A9144800F0E8FA4FF68073FA
:100528000193029703960495059401A90F4800F0DA
:10053800DDFA4CF233730193029703960495059400
:1005480001A90B4800F0D2FACDF80480029703966F
:100558000495059401A9074800F0C8FABEE700BF52
:1005680058040020003802400014024000100240E5
:10057800000C02400018024010B58EB0002307930B
:10058800089309930A930B930C930D93009301938B
:10059800029303930493059306931A484FF020425D
:1005A800026002F58272426006228260C3600361C3
:1005B800102242618361C361036243624FF4805138
:1005C8008162C3624FF48041016343638363436480
:1005D800092307930F230893082109910B921121EE
:1005E8000C9100930193FF240294039304920591C4
:1005F8006A4607A900F0B8FE08B90EB010BD00F0B1
:1006080091F8FAE75C04002008B5FFF75BFF08BD26
:10061800F0B58FB0002209920A920B920C920D92BB
:1006280001923D4B196B41F004011963196B01F0FC
:100638000401019101990292196B41F0200119639B
:10064800196B01F02001029102990392196B41F094
:1006580080011963196B01F08001039103990492D9
:10066800196B41F010011963196B01F01001049125
:1006780004990592196B41F002011963196B01F095
:100688000201059105990692196B41F00801196359
:10069800196B01F00801069106990792196B41F050
:1006A80001011963196B01F001010791079908927B
:1006B800196B41F0400119631B6B03F04003089369
:1006C800089B164D4FF48071284600F001FB01226B
:1006D8004FF4C061284600F0FBFA114E01224FF496
:1006E8000041304600F0F4FA4FF4E0630993012426
:1006F8000A940B9403270C9709A9284600F0F6F9E9
:100708004FF4004309930A940B940C9709A93046B7
:1007180000F0ECF90FB0F0BD0038024000140240C0
:100728000004024072B6FEE700B595B03022002101
:1007380008A800F09FFF00230393049305930693F2
:1007480007930193204A116C41F080511164126C97
:1007580002F080520192019A02931C4B1A6842F4EB
:1007680080421A601B6803F480430293029B0123B2
:1007780008934FF48033099302220E924FF48003BA
:100788000F9304231093A82111911292139308A890
:1007980000F0AEFA98B90F230393022304930023C1
:1007A80005934FF4A05306934FF480530793052104
:1007B80003A800F003FD20B915B05DF804FBFFF7AE
:1007C800B1FFFFF7AFFF00BF0038024000700040E4
:1007D80008B500F0EDF80C4B01221A600B4A93683B
:1007E80023F003039360FFF79FFFFFF711FF00F06B
:1007F8003BF8FFF7C1FE4FF40071054800F06EFAB0
:10080800642000F001F9F6E7000047420038024092
:100818000014024082B0002100910B4B5A6C42F444
:1008280080425A645A6C02F480420092009A019104
:100838001A6C42F080521A641B6C03F080530193C7
:10084800019B02B0704700BF00380240FEE7FEE798
:10085800FEE7FEE7FEE770477047704708B500F00F
:10086800C1F808BD7047000008B50A480A4B036084
:100878004FF4E133436000238360C36003610C22BB
:1008880042618361C36100F023FE00B908BDFFF730
:1008980049FFFBE7AC0400200010014000B589B017
:1008A800002303930493059306930793026803F1C7
:1008B800804303F588339A4202D009B05DF804FBFF
:1008C8000021019103F594335A6C42F010025A64E6
:1008D8005A6C02F010020192019A02911A6B42F0CE
:1008E80001021A631B6B03F001030293029B4FF48E
:1008F800C0630393022304930323069307230793F8
:1009080003A9024800F0F2F8D7E700BF0000024050
:10091800DFF834D0FFF7A6FF0C480D490D4A002335
:1009280002E0D458C4500433C4188C42F9D30A4A9C
:100938000A4C002301E013600432A242FBD300F00A
:1009480075FEFFF745FF70470000022000000020F9
:100958003C040020481800083C040020FC04002047
:10096800FEE7000010B504460E4B18784FF47A7372
:10097800B3FBF0F30C4A1068B0FBF3F000F0A2F8F8
:1009880068B90F2C01D901200AE0002221464FF056
:10099800FF3000F05FF8054B1C60002000E00120EC
:1009A80010BD00BF04000020000000200800002047
:1009B80008B50B4B1A6842F400721A601A6842F4C0
:1009C80080621A601A6842F480721A60032000F08C
:1009D8002FF80F20FFF7C6FFFFF71CFF002008BD08
:1009E800003C0240034A1168034B1B780B44136018
:1009F800704700BFF404002004000020014B186871
:100A0800704700BFF404002038B50446FFF7F6FF2E
:100A18000546B4F1FF3F02D0044B1B781C44FFF796
:100A2800EDFF401BA042FAD338BD00BF04000020F0
:100A3800074AD36823F4E0631B041B0C000200F48C
:100A4800E060034343F0BF6343F40033D36070476F
:100A580000ED00E000B5194BDB68C3F30223C3F1D6
:100A6800070CBCF1040F28BF4FF0040C03F1040E6F
:100A7800BEF1060F18D9033B4FF0FF3E0EFA0CFCEF
:100A880021EA0C0199400EFA03F322EA0303194301
:100A980000280BDB0901C9B200F1604000F5614094
:100AA80080F800135DF804FB0023E5E700F00F0071
:100AB8000901C9B2024B1954F4E700BF00ED00E088
:100AC80014ED00E00138B0F1807F0BD24FF0E02345
:100AD8005861054AF02182F8231000209861072206
:100AE8001A6170470120704700ED00E000230F2BCA
:100AF80000F2E48070B582B060E085685E0003248F
:100B0800B44025EA0405CC68B4402C4384604568A9
:100B180025EA02054C68C4F300129A402A43426051
:100B28005AE0DC08083450F8246003F00702950006
:100B38000F22AA4026EA020E0A69AA4042EA0E02D9
:100B480040F824205CE0072200E0002202FA0EF2BE
:100B58002A4302345A4D45F824205A4A94686FEAC9
:100B68000C0224EA0C054E6816F4801F01D04CEAEA
:100B78000405544CA560E46802EA04054E6816F4BE
:100B8800001F01D04CEA04054E4CE560646802EA97
:100B980004054E6816F4003F01D04CEA0405494CA0
:100BA8006560246822404D6815F4803F01D04CEA06
:100BB8000402444C226001330F2B7DD801229A4055
:100BC8000C6804EA020C32EA0404F4D14C6804F01C
:100BD8000304013C012C90D94A6802F00302032A5D
:100BE80009D0C4685D000322AA4024EA02048A6886
:100BF800AA402243C2604A6802F00302022A90D047
:100C080004684FEA430E032202FA0EF224EA0204B1
:100C18004A6802F0030202FA0EF2224302604A68AE
:100C280012F4403FC7D000220192274A546C44F482
:100C380080445464526C02F480420192019A9C08E8
:100C4800A51C1F4A52F8255003F003024FEA820EF2
:100C58000F2202FA0EF225EA02051C4A90423FF4DE
:100C680074AF02F5806290421AD002F58062904219
:100C780018D002F58062904216D002F58062904248
:100C880014D002F58062904212D002F58062904240
:100C980010D002F5806290423FF455AF082255E724
:100CA800012253E7022251E703224FE704224DE7CE
:100CB80005224BE7062249E702B070BD704700BF26
:100CC80000380140003C014000380240000002406A
:100CD8000AB181617047090481617047436901EA7B
:100CE800030221EA030141EA0241816170470000E1
:100CF800002800F0E08170B582B00446036813F064
:100D0800010F3BD09F4B9B6803F00C03042B2CD0A6
:100D18009C4B9B6803F00C03082B21D06368B3F548
:100D2800803F4FD0B3F5A02F52D0964B1A6822F4CB
:100D380080321A601A6822F480221A606368002BD5
:100D480050D0FFF75BFE05468E4B1B6813F4003F3F
:100D580014D1FFF753FE401B6428F5D90320B1E1F5
:100D6800884B5B6813F4800FD8D0864B1B6813F44C
:100D7800003F03D06368002B00F09F81236813F0C5
:100D8800020F54D07F4B9B6813F00C0F3ED07D4B65
:100D98009B6803F00C03082B33D0E368002B68D062
:100DA800794B01221A60FFF729FE0546754B1B682F
:100DB80013F0020F54D1FFF721FE401B0228F5D98A
:100DC80003207FE16F4A136843F480331360B5E76B
:100DD8006C4B1A6842F480221A601A6842F4803216
:100DE8001A60ABE7FFF70AFE0546664B1B6813F46B
:100DF800003FC3D0FFF702FE401B6428F5D903204B
:100E080060E1604B5B6813F4800FC6D15D4B1B68D3
:100E180013F0020F03D0E368012B40F05081594AC8
:100E2800136823F0F803216943EAC10313602368B8
:100E380013F0080F42D063696BB3534B0122C3F818
:100E4800802EFFF7DBFD05464E4B5B6F13F0020F5C
:100E580034D1FFF7D3FD401B0228F5D9032031E137
:100E6800484A136823F0F803216943EAC103136071
:100E7800DDE7454B00221A60FFF7C0FD0546414BF0
:100E88001B6813F0020FD2D0FFF7B8FD401B0228F1
:100E9800F5D9032016E13C4B0022C3F8802EFFF75A
:100EA800ADFD0546374B5B6F13F0020F06D0FFF719
:100EB800A5FD401B0228F5D9032003E1236813F0A0
:100EC800040F77D02F4B1B6C13F0805F33D10023B6
:100ED80001932C4B1A6C42F080521A641B6C03F07D
:100EE80080530193019B0125284B1B6813F4807FD5
:100EF80023D0A368012B34D0052B38D0214B1A6F8F
:100F080022F001021A671A6F22F004021A67A36816
:100F1800002B3DD0FFF772FD06461A4B1B6F13F0EE
:100F2800020F46D1FFF76AFD801B41F288339842D1
:100F3800F3D90320C6E00025D6E7144A136843F422
:100F480080731360FFF75AFD0646104B1B6813F4B5
:100F5800807FCED1FFF752FD801B0228F5D90320F0
:100F6800B0E0084A136F43F001031367CFE7054B5E
:100F78001A6F42F004021A671A6F42F001021A67E8
:100F8800C5E700BF0038024000004742007000403B
:100F9800FFF734FD0646524B1B6F13F0020F08D0C3
:100FA800FFF72CFD801B41F288339842F3D90320C8
:100FB80088E0EDB9A369002B00F08380484A926865
:100FC80002F00C02082A51D0022B17D0454B002200
:100FD8001A66FFF713FD0446414B1B6813F0007FA8
:100FE80042D0FFF70BFD001B0228F5D9032069E06A
:100FF8003B4A136C23F080531364DBE7394B002220
:101008001A66FFF7FBFC0546354B1B6813F0007F9B
:1010180006D0FFF7F3FC401B0228F5D9032051E066
:10102800E369226A1343626A43EA8213A26A520896
:10103800013A43EA0243E26A43EA0263284A5360F8
:10104800284B01221A66FFF7D9FC0446244B1B687B
:1010580013F0007F06D1FFF7D1FC001B0228F5D959
:1010680003202FE000202DE000202BE0012B2BD0C7
:101078001B4B5B6803F48001E269914226D103F0BF
:101088003F02216A8A4223D1616A47F6C0721A4038
:10109800B2EB811F1ED103F44031A26A5208013A13
:1010A800B1EB024F18D103F07063E26AB3EB026F41
:1010B80014D1002006E001207047012002E0012041
:1010C80000E0002002B070BD0120FBE70120F9E735
:1010D8000120F7E70120F5E70120F3E70120F1E718
:1010E800003802400000474208B5314B9B6803F0C6
:1010F8000C03042B57D0082B57D12D4B5A6802F0FC
:101108003F025B6813F4800F2AD0294B5968C1F35A
:10111800881C4FEA4C11B1EB0C006EEB0E0E4FEA37
:101128008E1343EA90638101091A63EB0E03DB0017
:1011380043EA5173C90011EB0C0C43F10003590247
:1011480000234FEA4C2041EADC51FFF739F8184BED
:101158005B68C3F3014301335B00B0FBF3F025E0A8
:10116800134B5968C1F3881C4FEA4C11B1EB0C00C2
:101178006EEB0E0E4FEA8E1343EA90638101091A53
:1011880063EB0E03DB0043EA5173C90011EB0C0C4F
:1011980043F10003990200234FEA8C2041EA9C5155
:1011A800FFF70EF8D3E7034800E0034808BD00BF87
:1011B8000038024000127A000024F400002800F0F1
:1011C8009B8070B50D4604464F4B1B6803F0070320
:1011D8008B4208D2CBB24C4A1370136803F0070352
:1011E8008B4240F08B80236813F0020F17D013F066
:1011F800040F04D0454A936843F4E053936023688E
:1012080013F0080F04D0414A936843F46043936095
:101218003E4A936823F0F003A1680B439360236868
:1012280013F0010F32D06368012B21D09A1E012AD6
:1012380025D9364A126812F0020F61D033498A68FC
:1012480022F0030213438B60FFF7D8FB06462F4BAF
:101258009B6803F00C036268B3EB820F16D0FFF7AC
:10126800CDFB801B41F288339842F0D9032042E03D
:10127800264A126812F4003FE0D101203BE0234ADD
:10128800126812F0007FD9D1012034E01E4B1B6890
:1012980003F00703AB4207D9EAB21B4B1A701B686D
:1012A80003F00703AB422DD1236813F0040F06D0D7
:1012B800164A936823F4E053E1680B43936023686C
:1012C80013F0080F07D0114A936823F4604321698B
:1012D80043EAC1039360FFF707FF0C4B9B68C3F316
:1012E80003130B4AD35CD8400A4B18600A4B1868A2
:1012F800FFF738FB002070BD012070470120FAE796
:101308000120F8E70120F6E7003C024000380240DF
:10131800181800080000002008000020014B186879
:10132800704700BF0000002008B5FFF7F7FF044B27
:101338009B68C3F38223034AD35CD84008BD00BF2F
:10134800003802402818000808B5FFF7E7FF044BEB
:101358009B68C3F34233034AD35CD84008BD00BF3F
:10136800003802402818000840B370B50E461546EC
:10137800044690F84930E3B1214651F8080B00F0D3
:10138800D7F8A2683146206800F006F9236BA268F6
:101398002946606800F028F92268A16852F82130CF
:1013A80043F0010342F82130012384F8493000203A
:1013B80070BD80F84830FFF727F9DDE70120704756
:1013C80038B504460268136923F44053C1680B43D7
:1013D800136183680269134342691343C2691A435C
:1013E8000168CB6823F4164323F00C031343CB6046
:1013F8000268536923F4407381690B43536103689E
:10140800314A934206D002F58062934202D0FFF738
:101418008BFF01E0FFF798FFE369B3F5004F29D090
:101428000021031849411B1841F10001C90041EA94
:101438005371DB00181863684FEA83024FEA93730D
:1014480041F10001FEF7BCFE204DA5FB0032510919
:10145800642303FB11031B013233A5FB03235B0940
:1014680003F0F00202EB011203F00F0321681344AA
:101478008B6038BD0023021843EB0301121841F1B9
:101488000001C90041EA5271D200101841F100016F
:10149800626892185B41FEF793FE0C4DA5FB003283
:1014A8005109642303FB1103DB003233A5FB03233B
:1014B8005B095A0002F4F87202EB011203F0070309
:1014C800216813448B60D4E7001001401F85EB515D
:1014D80060B310B5044690F8413013B3242384F860
:1014E80041302268D36823F40053D3602046FFF7C5
:1014F80067FF2268136923F49043136122685369D4
:1015080023F02A0353612268D36843F40053D3605D
:1015180000206064202384F8413084F842306063FE
:1015280010BD80F84030FFF7B9F9D7E701207047C0
:1015380010B40A6850F8223023F0010340F8223032
:101548008B68082B24D000244A6822431343CA68B6
:1015580013430A6913434A691343CA6913430A6A5E
:1015680013434A6A13438A6A1343CA6A13430A6BCA
:1015780013438A691343CA6B1343096850F821401F
:10158800044A22401A4340F82120002010BC70472A
:101598004024D9E78000F0FF00B5013250F822302E
:1015A80003F0404C0B68D1F804E043EA0E13D1F87D
:1015B80008E043EA0E23D1F80CE043EA0E43D1F8E1
:1015C80010E00EF1FF3E43EA0E53D1F814E0AEF1FD
:1015D800020E43EA0E6389690B434CEA030340F8A1
:1015E800223000205DF804FBB3F5804F05D06FF082
:1015F800704340F822300020704730B450F8223051
:10160800094C1C400B684D6843EA05138D6843EA92
:1016180005238D692B43C96843EA0143234340F8F6
:101628002230002030BC70470000F0CF70B50D4E5E
:101638000D4D761BB61006D0002455F8043B013436
:101648009847A642F9D1094E094D761B00F0D4F807
:10165800B61006D0002455F8043B01349847A6423A
:10166800F9D170BD3C1800083C180008441800085F
:101678003C180008830730B548D0541E002A3FD0D4
:10168800CAB2034601E0013C3AD303F8012B9D0797
:10169800F9D1032C2DD9CDB245EA05250F2C45EA01
:1016A800054536D9A4F1100222F00F0C03F1200EE3
:1016B800E6444FEA121C03F1100242E9045542E9DC
:1016C800025510327245F8D10CF1010214F00C0FDA
:1016D80003EB021204F00F0C13D0ACF1040323F057
:1016E80003030433134442F8045B9342FBD10CF028
:1016F80003042CB1CAB21C4403F8012B9C42FBD151
:1017080030BD64461346002CF4D1F9E7034614466D
:10171800BFE71A46A446E0E7024B13B1024800F0BF
:1017280005B8704700000000411700080023014673
:101738001A46184600F01AB838B5084B084D5B1B16
:101748009C1007D0043B1D44013C55F804399847C8
:10175800002CF9D1BDE8384000F054B8481800080A
:1017680044180008704700BF704700BF2DE9F047D4
:10177800DFF87CA00646DAF8000098460F46914646
:10178800FFF7F0FF1B4B1B68D3F8484124B365688B
:101798001F2D26DC5EB96B1C0235DAF80000636089
:1017A80044F82570FFF7E0FF0020BDE8F08704EB60
:1017B80085010123C1F88890D4F88821AB401A43E9
:1017C800022EC4F88821C1F80881E4D1D4F88C210C
:1017D8001343C4F88C31DEE703F5A674C3F8484117
:1017E800D5E7DAF80000FFF7BFFF4FF0FF30DCE77E
:1017F8003804002030180008F8B500BFF8BC08BC51
:101808009E467047F8B500BFF8BC08BC9E467047B6
:101818000000000000000000010203040607080998
:0C1828000000000001020304100000207A
:08183400C4E9FF7F0100000080
:08183C0021170008AD010008AE
:04184400890100080E
:101848000024F40001000000100000000000000067
:1018580000000000FC02002064030020CC030020EC
:101868000000000000000000000000000000000070
:101878000000000000000000000000000000000060
:101888000000000000000000000000000000000050
:101898000000000000000000000000000000000040
:1018A8000000000000000000000000000000000030
:1018B8000000000000000000000000000000000020
:1018C8000000000000000000000000000000000010
:1018D8000000000000000000000000000000000000
:1018E80000000000000000000000000000000000F0
:1018F80000000000000000000100000000000000DF
:101908000E33CDAB34126DE6ECDE05000B000000A3
:1019180000000000000000000000000000000000BF
:1019280000000000000000000000000000000000AF
:10193800000000000000000000000000000000009F
:10194800000000000000000000000000000000008F
:0C1C78000000000000000000F804002044
:0400000508000919CD
:00000001FF
