:020000040800F2
:100000000000022051180008D1160008D31600087D
:10001000D5160008D7160008D91600080000000001
:10002000000000000000000000000000DB160008D7
:10003000DD16000800000000DF160008E1160008C9
:10004000A1180008A1180008A1180008A1180008AC
:10005000A1180008A1180008A1180008A11800089C
:10006000A1180008A1180008A1180008A11800088C
:10007000A1180008A1180008A1180008A11800087C
:10008000A1180008A1180008A1180008A11800086C
:10009000A1180008A1180008A1180008A11800085C
:1000A000A1180008A1180008A1180008A11800084C
:1000B000A1180008A1180008A1180008A11800083C
:1000C000A1180008A1180008A1180008A11800082C
:1000D000A118000845600008A1180008A118000830
:1000E000A1180008A1180008A1180008A11800080C
:1000F000A1180008A1180008A1180008A1180008FC
:10010000A1180008A1180008A1180008A1180008EB
:10011000A1180008A1180008A1180008A1180008DB
:10012000A1180008A1180008A1180008A1180008CB
:10013000A1180008A1180008A1180008A1180008BB
:10014000A1180008A1180008A1180008A1180008AB
:10015000A1180008A1180008A1180008A11800089B
:10016000A1180008A1180008A1180008A11800088B
:10017000A1180008A1180008A1180008000000003C
:08018000A1180008A1180008F5
:1001C00010B5054C237833B9044B13B10448AFF391
:1001D00000800123237010BDC00900200000000032
:1001E000B0DA000808B5034B1BB103490348AFF36D
:1001F000008008BD00000000C4090020B0DA00083B
:1002000081F0004102E000BF83F0004330B54FEAC7
:1002100041044FEA430594EA050F08BF90EA020F34
:100220001FBF54EA000C55EA020C7FEA645C7FEAC7
:10023000655C00F0E2804FEA5454D4EB5555B8BFEA
:100240006D420CDD2C4480EA020281EA030382EA5B
:10025000000083EA010180EA020281EA0303362DED
:1002600088BF30BD11F0004F4FEA01314FF4801CC0
:100270004CEA113102D0404261EB410113F0004FD2
:100280004FEA03334CEA133302D0524263EB430389
:1002900094EA050F00F0A780A4F10104D5F1200E27
:1002A0000DDB02FA0EFC22FA05F2801841F1000182
:1002B00003FA0EF2801843FA05F359410EE0A5F156
:1002C00020050EF1200E012A03FA0EFC28BF4CF087
:1002D000020C43FA05F3C01851EBE37101F000453D
:1002E00007D54FF0000EDCF1000C7EEB00006EEB4A
:1002F0000101B1F5801F1BD3B1F5001F0CD34908D4
:100300005FEA30004FEA3C0C04F101044FEA44522A
:1003100012F5800F80F09A80BCF1004F08BF5FEAB1
:10032000500C50F1000041EB045141EA050130BD91
:100330005FEA4C0C404141EB0101013C28BFB1F5A3
:10034000801FE9D291F0000F04BF01460020B1FAEE
:1003500081F308BF2033A3F10B03B3F120020CDAC1
:100360000C3208DD02F1140CC2F10C0201FA0CF09F
:1003700021FA02F10CE002F11402D8BFC2F1200C04
:1003800001FA02F120FA0CFCDCBF41EA0C019040BA
:10039000E41AA2BF01EB0451294330BD6FEA040403
:1003A0001F3C1CDA0C340EDC04F11404C4F12002EE
:1003B00020FA04F001FA02F340EA030021FA04F300
:1003C00045EA030130BDC4F10C04C4F1200220FA57
:1003D00002F001FA04F340EA0300294630BD21FA95
:1003E00004F0294630BD94F0000F83F4801306BF5B
:1003F00081F480110134013D4EE77FEA645C18BF4F
:100400007FEA655C29D094EA050F08BF90EA020FE5
:1004100005D054EA000C04BF1946104630BD91EADD
:10042000030F1EBF0021002030BD5FEA545C05D1E0
:100430004000494128BF41F0004130BD14F580041F
:100440003CBF01F5801130BD01F0004545F0FE4193
:1004500041F470014FF0000030BD7FEA645C1ABFC8
:10046000194610467FEA655C1CBF0B46024650EAFF
:10047000013406BF52EA033591EA030F41F400212B
:1004800030BD00BF90F0000F04BF0021704730B5B1
:100490004FF4806404F132044FF000054FF0000186
:1004A00050E700BF90F0000F04BF0021704730B547
:1004B0004FF4806404F1320410F0004548BF40421C
:1004C0004FF000013EE700BF42004FEAE2014FEA71
:1004D00031014FEA02701FBF12F07F4393F07F4F4C
:1004E00081F06051704732F07F4208BF704793F04F
:1004F0007F4F04BF41F40021704730B54FF4607462
:1005000001F0004521F000411CE700BF50EA010264
:1005100008BF704730B54FF000050AE050EA01020D
:1005200008BF704730B511F0004502D5404261EB7D
:1005300041014FF4806404F132045FEA915C3FF4BE
:10054000D8AE4FF003025FEADC0C18BF03325FEA5B
:10055000DC0C18BF033202EBDC02C2F1200300FA0C
:1005600003FC20FA02F001FA03FE40EA0E0021FA31
:1005700002F11444BDE600BF4A0011D212F5001288
:1005800011D20DD56FF47873B3EB62520ED44FEAEB
:10059000C12343F0004343EA505323FA02F070476B
:1005A0004FF00000704750EA013002D14FF0FF30A9
:1005B00070474FF00000704753B94AB9002908BF8F
:1005C00000281CBF4FF0FF314FF0FF3000F074B92E
:1005D000ADF1080C6DE904CE00F006F8DDF804E09A
:1005E000DDE9022304B070472DE9F047089E0D466F
:1005F00004468846002B4DD18A42944668D9B2FA07
:1006000082F252B101FA02F3C2F1200120FA01F1A3
:100610000CFA02FC41EA030894404FEA1C45210C05
:10062000B8FBF5FE1FFA8CF705FB1E8341EA034376
:100630000EFB07F199420BD91CEB03030EF1FF30BF
:1006400080F01E81994240F21B81AEF1020E63449C
:100650005B1AA4B2B3FBF5F005FB103344EA034484
:1006600000FB07F7A7420AD91CEB040400F1FF3393
:1006700080F00881A74240F2058164440238E41BFF
:1006800040EA0E4000211EB1D4400023C6E90043D9
:10069000BDE8F0878B4208D9002E00F0EE800021E3
:1006A000C6E900050846BDE8F087B3FA83F10029E2
:1006B0004AD1AB4202D3824200F2F980841A65EB40
:1006C000030301209846002EE2D0C6E90048DFE788
:1006D00002B9FFDEB2FA82F2002A40F09180A1EB6B
:1006E0000C054FEA1C471FFA8CFE0121B5FBF7F3FE
:1006F00007FB1350250C45EA00450EFB03F0A8420A
:1007000008D91CEB050503F1FF3802D2A84200F21C
:10071000CB8043462D1AA4B2B5FBF7F007FB10556A
:1007200044EA05440EFB00FEA64508D91CEB040470
:1007300000F1FF3502D2A64500F2BB802846A4EBAB
:100740000E0440EA03409EE7C1F120078B4022FAE5
:1007500007FC4CEA030C20FA07F405FA01F31C43EA
:10076000FD404FEA1C4900FA01F3B5FBF9F8200CF3
:100770001FFA8CFE09FB185540EA054508FB0EF0F0
:10078000A84202FA01F20BD91CEB050508F1FF3A69
:1007900080F08880A84240F28580A8F10208654474
:1007A0002D1AA4B2B5FBF9F009FB105544EA054532
:1007B00000FB0EFEAE4508D91CEB050500F1FF3429
:1007C0006CD2AE456AD90238654440EA0840A0FBC5
:1007D0000294A5EB0E05A542C846A64656D353D0B3
:1007E0005EB1B3EB080265EB0E0505FA07F722FAD6
:1007F00001F3CD401F43C6E900750021BDE8F08735
:10080000C2F1200320FA03F10CFA02FC25FA03F3EB
:1008100095400D434FEA1C471FFA8CFEB3FBF7F1DE
:1008200007FB11302B0C43EA004301FB0EF098420A
:1008300004FA02F408D91CEB030301F1FF382FD2AC
:1008400098422DD9023963441B1AADB2B3FBF7F0BD
:1008500007FB103345EA034500FB0EF3AB4208D912
:100860001CEB050500F1FF3816D2AB4214D9023853
:100870006544ED1A40EA014138E73146304607E762
:100880008646E5E61846FAE64B45A9D2B9EB0208DA
:1008900064EB0C0E0138A3E74046EAE7204694E7F4
:1008A0004146D1E7D0467BE7023B654432E7084644
:1008B00009E76444023842E7704700BF00000000C7
:1008C00001F0FF01102A2BDB10F0070F08D010F801
:1008D000013B013A8B422DD010F0070F42B3F6D105
:1008E000F0B441EA012141EA014122F007047FF01E
:1008F00000070023F0E80256083C85EA010586EA75
:10090000010685FA47F5A3FA87F586FA47F6A5FAB0
:1009100087F68EB9EED1F0BC01F0FF0102F00702BC
:1009200032B110F8013B013A83EA010313B1F8D167
:100930000020704701387047002D06BF3546033848
:10094000073815F0010F07D1013015F4807F02BF81
:10095000013015F4C03F0130F0BC0138704700BFD2
:10096000844641EA000313F003036DD1403A41D3BA
:1009700051F8043B40F8043B51F8043B40F8043B79
:1009800051F8043B40F8043B51F8043B40F8043B69
:1009900051F8043B40F8043B51F8043B40F8043B59
:1009A00051F8043B40F8043B51F8043B40F8043B49
:1009B00051F8043B40F8043B51F8043B40F8043B39
:1009C00051F8043B40F8043B51F8043B40F8043B29
:1009D00051F8043B40F8043B51F8043B40F8043B19
:1009E00051F8043B40F8043B51F8043B40F8043B09
:1009F000403ABDD2303211D351F8043B40F8043BA9
:100A000051F8043B40F8043B51F8043B40F8043BE8
:100A100051F8043B40F8043B103AEDD20C3205D3B8
:100A200051F8043B40F8043B043AF9D2043208D0B0
:100A3000D2071CBF11F8013B00F8013B01D30B8822
:100A400003806046704700BF082A13D38B078DD000
:100A500010F003038AD0C3F10403D21ADB071CBFD2
:100A600011F8013B00F8013B80D331F8023B20F83C
:100A7000023B7BE7043AD9D3013A11F8013B00F875
:100A8000013BF9D20B7803704B7843708B788370FD
:100A900060467047000000000000000000000000F9
:100AA0000000000000000000000000000000000046
:100AB0000000000000000000000000000000000036
:100AC00090F800F06DE9024520F007016FF0000C8E
:100AD00010F0070491F820F040F049804FF0000436
:100AE0006FF00700D1E9002391F840F000F1080011
:100AF00082FA4CF2A4FA8CF283FA4CF3A2FA8CF349
:100B00004BBBD1E9022382FA4CF200F10800A4FAAF
:100B10008CF283FA4CF3A2FA8CF3E3B9D1E9042303
:100B200082FA4CF200F10800A4FA8CF283FA4CF33A
:100B3000A2FA8CF37BB9D1E9062301F1200182FAF4
:100B40004CF200F10800A4FA8CF283FA4CF3A2FAFA
:100B50008CF3002BC6D0002A04BF04301A4612BA08
:100B6000B2FA82F2FDE8024500EBD2007047D1E90B
:100B7000002304F00305C4F100004FEAC50514F09A
:100B8000040F91F840F00CFA05F562EA05021CBF6B
:100B900063EA050362464FF00004A9E770B54FF021
:100BA000FF0C4CF4E06C1CEA11541DBF1CEA1355F9
:100BB00094EA0C0F95EA0C0F00F0DEF82C4481EA61
:100BC000030621EA4C5123EA4C5350EA013518BF81
:100BD00052EA033541F4801143F4801338D0A0FB6E
:100BE00002CE4FF00005E1FB02E506F00042E0FB1B
:100BF00003E54FF00006E1FB03569CF0000F18BF21
:100C00004EF0010EA4F1FF04B6F5007F64F54074C8
:100C100004D25FEA4E0E6D4146EB060642EAC6215B
:100C200041EA55514FEAC52040EA5E504FEACE2EC8
:100C3000B4F1FD0C88BFBCF5E06F1ED8BEF1004FCB
:100C400008BF5FEA500E50F1000041EB045170BD47
:100C500006F0004646EA010140EA020081EA03018B
:100C6000B4EB5C04C2BFD4EB0C0541EA045170BD87
:100C700041F480114FF0000E013C00F3AB8014F101
:100C8000360FDEBF002001F0004170BDC4F100044A
:100C9000203C35DA0C341BDC04F11404C4F12005CB
:100CA00000FA05F320FA04F001FA05F240EA020026
:100CB00001F0004221F0004110EBD37021FA04F65C
:100CC00042EB06015EEA430E08BF20EAD37070BD16
:100CD000C4F10C04C4F1200500FA04F320FA05F075
:100CE00001FA04F240EA020001F0004110EBD37077
:100CF00041F100015EEA430E08BF20EAD37070BDE7
:100D0000C4F1200500FA05F24EEA020E20FA04F3BF
:100D100001FA05F243EA020321FA04F001F000416E
:100D200021FA04F220EA020000EBD3705EEA430EDF
:100D300008BF20EAD37070BD94F0000F0FD101F00E
:100D40000046400041EB010111F4801F08BF013C47
:100D5000F7D041EA060195F0000F18BF704703F085
:100D60000046520043EB030313F4801F08BF013D0C
:100D7000F7D043EA0603704794EA0C0F0CEA1355C8
:100D800018BF95EA0C0F0CD050EA410618BF52EA82
:100D90004306D1D181EA030101F000414FF0000088
:100DA00070BD50EA410606BF1046194652EA430696
:100DB00019D094EA0C0F02D150EA013613D195EA0A
:100DC0000C0F05D152EA03361CBF104619460AD152
:100DD00081EA030101F0004141F0FE4141F470015C
:100DE0004FF0000070BD41F0FE4141F4780170BD4C
:100DF00070B54FF0FF0C4CF4E06C1CEA11541DBFB1
:100E00001CEA135594EA0C0F95EA0C0F00F0A7F8B2
:100E1000A4EB050481EA030E52EA03354FEA0131DF
:100E200000F088804FEA03334FF0805545EA1313F2
:100E300043EA12634FEA022245EA111545EA1065BA
:100E40004FEA00260EF000419D4208BF964244F151
:100E5000FD0404F5407402D25B084FEA3202B61A70
:100E600065EB03055B084FEA32024FF480104FF444
:100E7000002CB6EB020E75EB030E22BFB61A7546B8
:100E800040EA0C005B084FEA3202B6EB020E75EB4B
:100E9000030E22BFB61A754640EA5C005B084FEAB3
:100EA0003202B6EB020E75EB030E22BFB61A754680
:100EB00040EA9C005B084FEA3202B6EB020E75EB8B
:100EC000030E22BFB61A754640EADC0055EA060E4C
:100ED00018D04FEA051545EA16754FEA06164FEA8F
:100EE000C30343EA52734FEAC2025FEA1C1CC0D13B
:100EF00011F4801F0BD141EA00014FF000004FF0C8
:100F0000004CB6E711F4801F04BF01430020B4F188
:100F1000FD0C88BFBCF5E06F3FF6AFAEB5EB030C40
:100F200004BFB6EB020C5FEA500C50F1000041EB3D
:100F3000045170BD0EF0004E4EEA113114EB5C040A
:100F4000C2BFD4EB0C0541EA045170BD41F48011DD
:100F50004FF0000E013C90E645EA060E8DE60CEAE5
:100F6000135594EA0C0F08BF95EA0C0F3FF43BAF02
:100F700094EA0C0F0AD150EA01347FF434AF95EAB9
:100F80000C0F7FF425AF104619462CE795EA0C0F9D
:100F900006D152EA03353FF4FDAE1046194622E76A
:100FA00050EA410618BF52EA43067FF4C5AE50EA44
:100FB00041047FF40DAF52EA43057FF4EBAE12E734
:100FC0004FF0FF3C06E000BF4FF0010C02E000BF15
:100FD0004FF0010C4DF804CD4FEA410C7FEA6C5CF8
:100FE0004FEA430C18BF7FEA6C5C1BD001B050EA9B
:100FF000410C0CBF52EA430C91EA030F02BF90EA86
:10100000020F0020704710F1000F91EA030F58BF44
:10101000994208BF90422CBFD8176FEAE37040F0A6
:10102000010070474FEA410C7FEA6C5C02D150EA44
:10103000013C07D14FEA430C7FEA6C5CD6D152EAFF
:10104000033CD3D05DF8040B704700BF84461046C4
:1010500062468C461946634600E000BF01B5FFF7C3
:10106000B7FF002848BF10F1000F01BD4DF808ED93
:10107000FFF7F4FF0CBF012000205DF808FB00BF64
:101080004DF808EDFFF7EAFF34BF012000205DF8BE
:1010900008FB00BF4DF808EDFFF7E0FF94BF01200B
:1010A00000205DF808FB00BF4DF808EDFFF7CEFF0C
:1010B00094BF012000205DF808FB00BF4DF808ED4B
:1010C000FFF7C4FF34BF012000205DF808FB00BF1C
:1010D0004FEA410C7FEA6C5C02D150EA013C0AD134
:1010E0004FEA430C7FEA6C5C02D152EA033C02D126
:1010F0004FF0000070474FF0010070474FEA410287
:1011000012F5001215D211D56FF47873B3EB625259
:1011100012D94FEAC12343F0004343EA505311F080
:10112000004F23FA02F018BF404270474FF0000012
:10113000704750EA013005D111F0004008BF6FF050
:10114000004070474FF00000704700BF2DE9F041AC
:1011500086B0002301930293039304930593224BDB
:101160001B6813B106B0BDE8F0811F4B01221A6065
:10117000002600961D4B9A6B42F001029A639B6B0E
:1011800003F001030093009B4FF48058CDF80480D6
:1011900002270297032504950C24059401A91448FD
:1011A00003F05CFE4FF6807301930297039604955B
:1011B000059401A90F4803F051FE4CF233730193DB
:1011C000029703960495059401A90B4803F046FE87
:1011D000CDF80480029703960495059401A9074869
:1011E00003F03CFEBEE700BFDC09002000380240EF
:1011F0000014024000100240000C0240001802409F
:1012000010B58EB000230793089309930A930B93AC
:101210000C930D930093019302930393049305930E
:1012200006931A484FF02042026002F58272426033
:1012300006228260C3600361102242618361C36140
:10124000036243624FF480518162C3624FF4804174
:101250000163436383634364092307930F23089364
:10126000082109910B9211210C9100930193FF2405
:1012700002940393049205916A4607A904F02CFA9C
:1012800008B90EB010BD00F0D1F8FAE7E00900206F
:1012900000B589B0002200921C4B996B41F001010E
:1012A0009963996B01F00101009100990192196B0A
:1012B00041F008011963196B01F0080101910199CE
:1012C00002921A6B42F010021A631B6B03F01003B8
:1012D0000293029B4CF203730393022304930122B3
:1012E000059206930C2307930DEB0301084803F0C6
:1012F000B5FD4FF68073039303A9064803F0AEFDD6
:10130000FFF724FF09B05DF804FB00BF003802407E
:10131000000C024000100240F0B58FB0002209928C
:101320000A920B920C920D9201923D4B196B41F077
:1013300004011963196B01F00401019101990292F2
:10134000196B41F020011963196B01F02001029122
:1013500002990392196B41F080011963196B01F036
:101360008001039103990492196B41F010011963F4
:10137000196B01F01001049104990592196B41F069
:1013800002011963196B01F002010591059906929A
:10139000196B41F008011963196B01F008010691FE
:1013A00006990792196B41F001011963196B01F05D
:1013B0000101079107990892196B41F040011963E7
:1013C0001B6B03F040030893089B164D4FF480718C
:1013D000284603F035FE01224FF4C061284603F091
:1013E0002FFE114E01224FF40041304603F028FE3B
:1013F0004FF4E063099301240A940B9403270C979C
:1014000009A9284603F02AFD4FF4004309930A94E2
:101410000B940C9709A9304603F020FD0FB0F0BDE6
:1014200000380240001402400004024072B6FEE799
:1014300000B595B03022002108A804F035FE002345
:10144000039304930593069307930193204A116C29
:1014500041F080511164126C02F080520192019AA5
:1014600002931C4B1A6842F480421A601B6803F412
:1014700080430293029B012308934FF48033099326
:1014800002220E924FF480030F9304231093A8219D
:1014900011911292139308A803F0E2FD98B90F235B
:1014A000039302230493002305934FF4A053069360
:1014B0004FF480530793052103A804F037F820B9AF
:1014C00015B05DF804FBFFF7B1FFFFF7AFFF00BFFA
:1014D000003802400070004070B588B003F0D0FBC7
:1014E000644B01221A60644A936823F003039360FB
:1014F000FFF79EFFFFF710FF00F056F9FFF780FEA1
:1015000003F0BEFB0723022208214FF4A87004F069
:10151000D3FCA82004F09EFC4FF4E13004F032FD2F
:1015200003F04CFB03F082F8544B4FF478421A60FE
:10153000534B9A88534905A804F01CFE002445E04B
:101540004FF6FF7003F058F84FF4784602964E4B72
:10155000019320230093F02228210A2003F0FCFAB3
:1015600002964A4B019318230093F02250210A203F
:1015700003F0F2FA0296464B0193102500952B4694
:10158000F0226E210A2003F0E7FA029605AB0193E0
:1015900000952B46F02282210A2003F0DDFA013467
:1015A000E4B20C2C00D100243A4D4FF400712846CF
:1015B00003F04CFD4FF47A7004F070FC4FF40071AE
:1015C000284603F043FD642004F070FC0B2CBBD8CC
:1015D00001A353F824F000BF4115000809160008C4
:1015E0001116000819160008231600082D16000809
:1015F00037160008411600084B160008551600085B
:101600005F16000869160008002002F0F5FF9BE74E
:101610001F2002F0F1FF97E74FF4784002F0ECFF53
:1016200092E74FF61F0002F0E7FF8DE74FF4FC60F2
:1016300002F0E2FF88E740F2FF7002F0DDFF83E78F
:101640004FF6E07002F0D8FF7EE74FF6074002F059
:10165000D3FF79E748F2304002F0CEFF74E74CF256
:10166000186002F0C9FF6FE74BF6404002F0C4FF7C
:101670006AE700BF0000474200380240080000202F
:10168000CC0A0020C8DA0008D4DA0008DCDA000846
:10169000E8DA00080014024082B0002100910B4BF0
:1016A0005A6C42F480425A645A6C02F480420092AE
:1016B000009A01911A6C42F080521A641B6C03F07C
:1016C00080530193019B02B0704700BF0038024075
:1016D000FEE7FEE7FEE7FEE7FEE77047704770476C
:1016E00008B503F0E7FA08BD0120704708B504F01B
:1016F000B1FC162303604FF0FF3008BD08B54FF072
:10170000FF31FFF7F3FFFEE770B50C4616460025E4
:1017100006E0AFF30080214601F8010B01350C46CD
:10172000B542F6DB304670BD70B50C461646002556
:1017300004E014F8010BAFF300800135B542F8DB8B
:10174000304670BD4FF0FF3070474FF400534B6090
:1017500000207047012070470020704710B50346F5
:101760000C4A0D490D48006840B10C48006803441C
:10177000521A934206D8094A136010BD0748084C14
:101780000460F2E704F066FC0C2303604FF0FF30C6
:10179000F3E700BF0000022000040000300A002030
:1017A000480C00207047000008B50A480A4B036047
:1017B0004FF4E133436000238360C36003610C2274
:1017C00042618361C36104F099F800B908BDFFF775
:1017D0002DFEFBE7340A00200010014000B589B05F
:1017E000002303930493059306930793026803F180
:1017F000804303F588339A4202D009B05DF804FBB8
:101800000021019103F594335A6C42F010025A649E
:101810005A6C02F010020192019A02911A6B42F086
:1018200001021A631B6B03F001030293029B4FF446
:10183000C0630393022304930323069307230793B0
:1018400003A9024803F00AFBD7E700BF00000240EB
:10185000DFF834D0FFF7A6FF0C480D490D4A0023EE
:1018600002E0D458C4500433C4188C42F9D30A4A55
:101870000A4C002301E013600432A242FBD304F0BF
:10188000EFFBFFF729FE7047000002200000002058
:10189000C0090020CC0E0108C0090020440C002023
:1018A000FEE782B04FF0D843B3F880309BB2ADF87A
:1018B0000630BDF8060080B202B0704782B0ADF8C5
:1018C0000600BDF806309BB2ADF80630BDF8063014
:1018D0009BB24FF0D842A2F8803002B0704782B07D
:1018E000ADF80600BDF806309BB2ADF80630BDF885
:1018F00006309BB24FF0D842A2F87E3002B070475B
:1019000008B51120FFF7EBFF782004F0C7FA362066
:10191000FFF7E5FF0020FFF7D1FF3A20FFF7DFFFD9
:101920000520FFF7CBFFB220FFF7D9FF0C20FFF710
:10193000C5FF0C20FFF7C2FF0020FFF7BFFF3320D9
:10194000FFF7BCFF3320FFF7B9FFB720FFF7C7FF52
:101950003520FFF7B3FFBB20FFF7C1FF3220FFF7B1
:10196000ADFFC020FFF7BBFF0C20FFF7A7FFC22091
:10197000FFF7B5FF0120FFF7A1FFC320FFF7AFFF7F
:101980001020FFF79BFFC420FFF7A9FF2020FFF7DF
:1019900095FFC620FFF7A3FF0F20FFF78FFFD02092
:1019A000FFF79DFFA420FFF789FFA120FFF786FF27
:1019B000E020FFF794FFD020FFF780FF0020FFF723
:1019C0007DFF0220FFF77AFF0720FFF777FF0A204D
:1019D000FFF774FF2820FFF771FF3220FFF76EFF3B
:1019E0004420FFF76BFF4220FFF768FF0620FFF758
:1019F00065FF0E20FFF762FF1220FFF75FFF142044
:101A0000FFF75CFF1720FFF759FFE120FFF767FFA3
:101A1000D020FFF753FF0020FFF750FF0220FFF711
:101A20004DFF0720FFF74AFF0A20FFF747FF282056
:101A3000FFF744FF3120FFF741FF5420FFF73EFF3F
:101A40004720FFF73BFF0E20FFF738FF1C20FFF772
:101A500035FF1720FFF732FF1B20FFF72FFF1E2057
:101A6000FFF72CFF2A20FFF73AFF0020FFF726FFA1
:101A70000020FFF723FF0020FFF720FFEF20FFF7F4
:101A80001DFF2B20FFF72BFF0020FFF717FF002083
:101A9000FFF714FF0120FFF711FF3F20FFF70EFFB4
:101AA0002920FFF71CFF08BD08B5CF20FFF717FF5F
:101AB0000020FFF703FFC120FFF700FF3020FFF7F2
:101AC000FDFEED20FFF70BFF6420FFF7F7FE03207C
:101AD000FFF7F4FE1220FFF7F1FE8120FFF7EEFE84
:101AE000E820FFF7FCFE8520FFF7E8FE1020FFF757
:101AF000E5FE7A20FFF7E2FECB20FFF7F0FE39206B
:101B0000FFF7DCFE2C20FFF7D9FE0020FFF7D6FE02
:101B10003420FFF7D3FE0220FFF7D0FEF720FFF7B7
:101B2000DEFE2020FFF7CAFEEA20FFF7D8FE0020E5
:101B3000FFF7C4FE0020FFF7C1FEC020FFF7CFFE75
:101B40001B20FFF7BBFEC120FFF7C9FE0120FFF7F6
:101B5000B5FEC520FFF7C3FE3020FFF7AFFE3020F3
:101B6000FFF7ACFEC720FFF7BAFEB720FFF7A6FECF
:101B70003620FFF7B4FE4820FFF7A0FE3A20FFF71B
:101B8000AEFE5520FFF79AFEB120FFF7A8FE002019
:101B9000FFF794FE1A20FFF791FEB620FFF79FFE95
:101BA0000A20FFF78BFEA220FFF788FEF220FFF746
:101BB00096FE0020FFF782FE2620FFF790FE012010
:101BC000FFF77CFEE020FFF78AFE0F20FFF776FE8E
:101BD0002A20FFF773FE2820FFF770FE0820FFF78A
:101BE0006DFE0E20FFF76AFE0820FFF767FE542007
:101BF000FFF764FEA920FFF761FE4320FFF75EFEBA
:101C00000A20FFF75BFE0F20FFF758FE0020FFF7CA
:101C100055FE0020FFF752FE0020FFF74FFE002088
:101C2000FFF74CFEE120FFF75AFE0020FFF746FECB
:101C30001520FFF743FE1720FFF740FE0720FFF7B0
:101C40003DFE1120FFF73AFE0620FFF737FE2B205E
:101C5000FFF734FE5620FFF731FE3C20FFF72EFE43
:101C60000520FFF72BFE1020FFF728FE0F20FFF7BF
:101C700025FE3F20FFF722FE3F20FFF71FFE0F202B
:101C8000FFF71CFE2B20FFF72AFE0020FFF716FEB1
:101C90000020FFF713FE0120FFF710FE3F20FFF7A3
:101CA0000DFE2A20FFF71BFE0020FFF707FE002095
:101CB000FFF704FE0020FFF701FEEF20FFF7FEFD17
:101CC0001120FFF70CFE782004F0E8F82920FFF738
:101CD00006FE08BD08B5ED20FFF701FE0120FFF765
:101CE000EDFDFE20FFF7EAFDEE20FFF7F8FDDE2018
:101CF000FFF7E4FD2120FFF7E1FDF120FFF7EFFD05
:101D00000120FFF7DBFDDF20FFF7E9FD1020FFF7E3
:101D1000D5FDC420FFF7E3FD8F20FFF7CFFDC620E0
:101D2000FFF7DDFD0020FFF7C9FDE220FFF7C6FD4C
:101D3000E220FFF7C3FDE220FFF7C0FDBF20FFF761
:101D4000CEFDAA20FFF7BAFDB020FFF7C8FD0D2099
:101D5000FFF7B4FD0020FFF7B1FD0D20FFF7AEFD4A
:101D60000020FFF7ABFD1120FFF7A8FD0020FFF7D3
:101D7000A5FD1920FFF7A2FD0020FFF79FFD212000
:101D8000FFF79CFD0020FFF799FD2D20FFF796FD42
:101D90000020FFF793FD3D20FFF790FD0020FFF7A7
:101DA0008DFD5D20FFF78AFD0020FFF787FD5D2098
:101DB000FFF784FD0020FFF781FDB120FFF78FFDC5
:101DC0008020FFF77BFD0020FFF778FD8B20FFF7D9
:101DD00075FD0020FFF772FD9620FFF76FFD0020D4
:101DE000FFF76CFDB220FFF77AFD0020FFF766FDDC
:101DF0000020FFF763FD0220FFF760FD0020FFF7E2
:101E00005DFD0320FFF75AFD0020FFF757FDB320CB
:101E1000FFF765FD0020FFF751FD0020FFF74EFDA5
:101E20000020FFF74BFD0020FFF748FD0020FFF7E3
:101E300045FD0020FFF742FD0020FFF73FFD002099
:101E4000FFF73CFD0020FFF739FD0020FFF736FDCE
:101E50000020FFF733FD0020FFF730FD0020FFF7E3
:101E60002DFD0020FFF72AFD0020FFF727FD0020B1
:101E7000FFF724FD0020FFF721FD0020FFF71EFDE6
:101E80000020FFF71BFD0020FFF718FD0020FFF7E3
:101E900015FD0020FFF712FD0020FFF70FFD0020C9
:101EA000FFF70CFDB420FFF71AFD8B20FFF706FDAE
:101EB0000020FFF703FD9620FFF700FD0020FFF74D
:101EC000FDFCA120FFF7FAFC0020FFF7F7FCB5208E
:101ED000FFF705FD0220FFF7F1FC0020FFF7EEFC05
:101EE0000320FFF7EBFC0020FFF7E8FC0420FFF7DE
:101EF000E5FC0020FFF7E2FCB620FFF7F0FC002035
:101F0000FFF7DCFC0020FFF7D9FCB720FFF7E7FC68
:101F10000020FFF7D3FC0020FFF7D0FC3F20FFF7A5
:101F2000CDFC0020FFF7CAFC5E20FFF7C7FC0020B5
:101F3000FFF7C4FC6420FFF7C1FC0020FFF7BEFCE4
:101F40008C20FFF7BBFC0020FFF7B8FCAC20FFF7AC
:101F5000B5FC0020FFF7B2FCDC20FFF7AFFC00204F
:101F6000FFF7ACFC7020FFF7A9FC0020FFF7A6FCF0
:101F70009020FFF7A3FC0020FFF7A0FCEB20FFF769
:101F80009DFC0020FFF79AFCDC20FFF797FC002067
:101F9000FFF794FCB820FFF7A2FC0020FFF78EFCAF
:101FA0000020FFF78BFC0020FFF788FC0020FFF7E4
:101FB00085FC0020FFF782FC0020FFF77FFC00205B
:101FC000FFF77CFC0020FFF779FCBA20FFF787FCC5
:101FD0002420FFF773FC0020FFF770FC0020FFF7C0
:101FE0006DFC0020FFF76AFCC120FFF778FC202081
:101FF000FFF764FC0020FFF761FC5420FFF75EFC54
:102000000020FFF75BFCFF20FFF758FC0020FFF7E4
:1020100055FCC220FFF763FC0A20FFF74FFC0020AD
:10202000FFF74CFC0420FFF749FC0020FFF746FCBB
:10203000C320FFF754FC3C20FFF740FC0020FFF7D3
:102040003DFC3A20FFF73AFC0020FFF737FC39202F
:10205000FFF734FC0020FFF731FC3720FFF72EFCA0
:102060000020FFF72BFC3C20FFF728FC0020FFF7A7
:1020700025FC3620FFF722FC0020FFF71FFC322052
:10208000FFF71CFC0020FFF719FC2F20FFF716FCC0
:102090000020FFF713FC2C20FFF710FC0020FFF7B7
:1020A0000DFC2920FFF70AFC0020FFF707FC262083
:1020B000FFF704FC0020FFF701FC2420FFF7FEFBE4
:1020C0000020FFF7FBFB2420FFF7F8FB0020FFF7C1
:1020D000F5FB2320FFF7F2FB0020FFF7EFFB3C208E
:1020E000FFF7ECFB0020FFF7E9FB3620FFF7E6FBEC
:1020F0000020FFF7E3FB3220FFF7E0FB0020FFF7B3
:10210000DDFB2F20FFF7DAFB0020FFF7D7FB2C20A9
:10211000FFF7D4FB0020FFF7D1FB2920FFF7CEFB10
:102120000020FFF7CBFB2620FFF7C8FB0020FFF7BE
:10213000C5FB2420FFF7C2FB0020FFF7BFFB2420D4
:10214000FFF7BCFB0020FFF7B9FB2320FFF7B6FB2E
:102150000020FFF7B3FBC420FFF7C1FB6220FFF7AD
:10216000ADFB0020FFF7AAFB0520FFF7A7FB00202F
:10217000FFF7A4FB8420FFF7A1FB0020FFF79EFBE5
:10218000F020FFF79BFB0020FFF798FB1820FFF7DC
:1021900095FB0020FFF792FBA420FFF78FFB0020A8
:1021A000FFF78CFB1820FFF789FB0020FFF786FB69
:1021B0005020FFF783FB0020FFF780FB0C20FFF788
:1021C0007DFB0020FFF77AFB1720FFF777FB00204D
:1021D000FFF774FB9520FFF771FB0020FFF76EFB04
:1021E000F320FFF76BFB0020FFF768FBE620FFF70B
:1021F00065FB0020FFF762FBC520FFF770FB322074
:10220000FFF75CFB0020FFF759FB4420FFF756FB6C
:102210000020FFF753FB6520FFF750FB0020FFF77E
:102220004DFB7620FFF74AFB0020FFF747FB882095
:10223000FFF744FB0020FFF741FBC620FFF74FFBF1
:102240002020FFF73BFB0020FFF738FB1720FFF7AC
:1022500035FB0020FFF732FB0120FFF72FFB0020AA
:10226000FFF72CFBC720FFF73AFB0020FFF726FB08
:102270000020FFF723FB0020FFF720FB0020FFF7E3
:102280001DFBC820FFF72BFB0020FFF717FB0020EA
:10229000FFF714FB0020FFF711FB0020FFF70EFBF8
:1022A000C920FFF71CFB0020FFF708FB0020FFF709
:1022B00005FB0020FFF702FB0020FFF7FFFA0020DC
:1022C000FFF7FCFA0020FFF7F9FA0020FFF7F6FA13
:1022D0000020FFF7F3FA0020FFF7F0FA0020FFF7E5
:1022E000EDFA0020FFF7EAFA0020FFF7E7FA0020F6
:1022F000FFF7E4FA0020FFF7E1FA0020FFF7DEFA2B
:102300000020FFF7DBFAE020FFF7E9FA1620FFF7DD
:10231000D5FA0020FFF7D2FA1C20FFF7CFFA0020F1
:10232000FFF7CCFA2120FFF7C9FA0020FFF7C6FA21
:102330003620FFF7C3FA0020FFF7C0FA4620FFF768
:10234000BDFA0020FFF7BAFA5220FFF7B7FA0020D3
:10235000FFF7B4FA6420FFF7B1FA0020FFF7AEFAF6
:102360007A20FFF7ABFA0020FFF7A8FA8B20FFF7DF
:10237000A5FA0020FFF7A2FA9920FFF79FFA0020A4
:10238000FFF79CFAA820FFF799FA0020FFF796FACA
:10239000B920FFF793FA0020FFF790FAC420FFF767
:1023A0008DFA0020FFF78AFACA20FFF787FA00208B
:1023B000FFF784FAD220FFF781FA0020FFF77EFAB8
:1023C000D920FFF77BFA0020FFF778FAE020FFF72B
:1023D00075FA0020FFF772FAF320FFF76FFA00207A
:1023E000FFF76CFAE120FFF77AFA1620FFF766FA9A
:1023F0000020FFF763FA1C20FFF760FA0020FFF7C8
:102400005DFA2220FFF75AFA0020FFF757FA36202C
:10241000FFF754FA0020FFF751FA4520FFF74EFA74
:102420000020FFF74BFA5220FFF748FA0020FFF791
:1024300045FA6420FFF742FA0020FFF73FFA7A20BE
:10244000FFF73CFA0020FFF739FA8B20FFF736FA46
:102450000020FFF733FA9920FFF730FA0020FFF74A
:102460002DFAA820FFF72AFA0020FFF727FAB92053
:10247000FFF724FA0020FFF721FAC420FFF71EFA25
:102480000020FFF71BFACA20FFF718FA0020FFF719
:1024900015FAD220FFF712FA0020FFF70FFAD82022
:1024A000FFF70CFA0020FFF709FAE020FFF706FA21
:1024B0000020FFF703FAF320FFF700FA0020FFF7F0
:1024C000FDF9E220FFF70BFA0520FFF7F7F90020EE
:1024D000FFF7F4F90B20FFF7F1F90020FFF7EEF911
:1024E0001B20FFF7EBF90020FFF7E8F93420FFF796
:1024F000E5F90020FFF7E2F94420FFF7DFF90020BB
:10250000FFF7DCF94F20FFF7D9F90020FFF7D6F9E4
:102510006120FFF7D3F90020FFF7D0F97920FFF70A
:10252000CDF90020FFF7CAF98820FFF7C7F900208E
:10253000FFF7C4F99720FFF7C1F90020FFF7BEF9B4
:10254000A620FFF7BBF90020FFF7B8F9B720FFF787
:10255000B5F90020FFF7B2F9C220FFF7AFF900206C
:10256000FFF7ACF9C720FFF7A9F90020FFF7A6F99C
:10257000D120FFF7A3F90020FFF7A0F9D620FFF73D
:102580009DF90020FFF79AF9DD20FFF797F9002069
:10259000FFF794F9F320FFF791F90020FFF78EF988
:1025A000E320FFF79CF90520FFF788F90020FFF7EB
:1025B00085F90A20FFF782F90020FFF77FF91C2038
:1025C000FFF77CF90020FFF779F93320FFF776F960
:1025D0000020FFF773F94420FFF770F90020FFF7A0
:1025E0006DF95020FFF76AF90020FFF767F96220C4
:1025F000FFF764F90020FFF761F97820FFF75EF933
:102600000020FFF75BF98820FFF758F90020FFF75B
:1026100055F99720FFF752F90020FFF74FF9A62050
:10262000FFF74CF90020FFF749F9B720FFF746F90B
:102630000020FFF743F9C220FFF740F90020FFF721
:102640003DF9C720FFF73AF90020FFF737F9D1200D
:10265000FFF734F90020FFF731F9D520FFF72EF905
:102660000020FFF72BF9DD20FFF728F90020FFF706
:1026700025F9F320FFF722F90020FFF71FF9E420E6
:10268000FFF72DF90120FFF719F90020FFF716F9E0
:102690000120FFF713F90020FFF710F90220FFF7E0
:1026A0000DF90020FFF70AF92A20FFF707F90020AB
:1026B000FFF704F93C20FFF701F90020FFF7FEF8CF
:1026C0004B20FFF7FBF80020FFF7F8F85D20FFF73D
:1026D000F5F80020FFF7F2F87420FFF7EFF800207C
:1026E000FFF7ECF88420FFF7E9F80020FFF7E6F8A1
:1026F0009320FFF7E3F80020FFF7E0F8A220FFF7B0
:10270000DDF80020FFF7DAF8B320FFF7D7F8002054
:10271000FFF7D4F8BE20FFF7D1F80020FFF7CEF87E
:10272000C420FFF7CBF80020FFF7C8F8CD20FFF753
:10273000C5F80020FFF7C2F8D320FFF7BFF800204C
:10274000FFF7BCF8DD20FFF7B9F80020FFF7B6F877
:10275000F320FFF7B3F80020FFF7B0F8E520FFF70C
:10276000BEF80020FFF7AAF80020FFF7A7F8002026
:10277000FFF7A4F80020FFF7A1F80220FFF79EF86A
:102780000020FFF79BF82920FFF798F80020FFF7BB
:1027900095F83C20FFF792F80020FFF78FF84B20C8
:1027A000FFF78CF80020FFF789F85D20FFF786F827
:1027B0000020FFF783F87420FFF780F80020FFF770
:1027C0007DF88420FFF77AF80020FFF777F8932050
:1027D000FFF774F80020FFF771F8A220FFF76EF8FA
:1027E0000020FFF76BF8B320FFF768F80020FFF731
:1027F00065F8BE20FFF762F80020FFF75FF8C420FD
:10280000FFF75CF80020FFF759F8CD20FFF756F8E6
:102810000020FFF753F8D320FFF750F80020FFF710
:102820004DF8DC20FFF74AF80020FFF747F8F320C7
:10283000FFF744F80020FFF741F8E620FFF74FF8D4
:102840001120FFF73BF80020FFF738F83420FFF79E
:1028500035F80020FFF732F85620FFF72FF8002058
:10286000FFF72CF87620FFF729F80020FFF726F86D
:102870007720FFF723F80020FFF720F86620FFF706
:102880001DF80020FFF71AF88820FFF717F800203E
:10289000FFF714F89920FFF711F80020FFF70EF862
:1028A000BB20FFF70BF80020FFF708F89920FFF78F
:1028B00005F80020FFF702F86620FEF7FFFF002072
:1028C000FEF7FCFF5520FEF7F9FF0020FEF7F6FFAC
:1028D0005520FEF7F3FF0020FEF7F0FF4520FEF73E
:1028E000EDFF0020FEF7EAFF4320FEF7E7FF0020A0
:1028F000FEF7E4FF4420FEF7E1FF0020FEF7DEFFD5
:10290000E720FEF7ECFF3220FEF7D8FF0020FEF7AD
:10291000D5FF5520FEF7D2FF0020FEF7CFFF76202F
:10292000FEF7CCFF0020FEF7C9FF6620FEF7C6FFCA
:102930000020FEF7C3FF6720FEF7C0FF0020FEF770
:10294000BDFF6720FEF7BAFF0020FEF7B7FF872024
:10295000FEF7B4FF0020FEF7B1FF9920FEF7AEFFAF
:102960000020FEF7ABFFBB20FEF7A8FF0020FEF71C
:10297000A5FF9920FEF7A2FF0020FEF79FFF77201A
:10298000FEF79CFF0020FEF799FF4420FEF796FF1C
:102990000020FEF793FF5620FEF790FF0020FEF781
:1029A0008DFF2320FEF78AFF0020FEF787FF3320EC
:1029B000FEF784FF0020FEF781FF4520FEF77EFF33
:1029C0000020FEF77BFFE820FEF789FF0020FEF7DE
:1029D00075FF0020FEF772FF9920FEF76FFF0020C1
:1029E000FEF76CFF8720FEF769FF0020FEF766FF09
:1029F0008820FEF763FF0020FEF760FF7720FEF7D8
:102A00005DFF0020FEF75AFF6620FEF757FF00200B
:102A1000FEF754FF8820FEF751FF0020FEF74EFF1F
:102A2000AA20FEF74BFF0020FEF748FFBB20FEF771
:102A300045FF0020FEF742FF9920FEF73FFF0020F0
:102A4000FEF73CFF6620FEF739FF0020FEF736FF59
:102A50005520FEF733FF0020FEF730FF5520FEF72C
:102A60002DFF0020FEF72AFF4420FEF727FF00205D
:102A7000FEF724FF4420FEF721FF0020FEF71EFF93
:102A80005520FEF71BFF0020FEF718FFE920FEF798
:102A900026FFAA20FEF712FF0020FEF70FFF0020FE
:102AA000FEF70CFF0020FEF709FF0020FEF717FFDE
:102AB000AA20FEF703FFCF20FEF711FF0020FEF74C
:102AC000FDFE0020FEF7FAFE0020FEF7F7FE0020D4
:102AD000FEF7F4FE0020FEF7F1FE0020FEF7EEFE0A
:102AE0000020FEF7EBFE0020FEF7E8FE0020FEF7D8
:102AF000E5FE0020FEF7E2FE0020FEF7DFFE0020EC
:102B0000FEF7DCFE0020FEF7D9FE0020FEF7D6FE21
:102B10000020FEF7D3FE0020FEF7D0FE0020FEF7D7
:102B2000CDFEF020FEF7DBFE0020FEF7C7FE5020B2
:102B3000FEF7C4FE0020FEF7C1FE0020FEF7BEFE39
:102B40000020FEF7BBFEF320FEF7C9FE0020FEF7D3
:102B5000B5FEF920FEF7C3FE0620FEF7AFFE1020FB
:102B6000FEF7ACFE2920FEF7A9FE0020FEF7A6FE28
:102B70003A20FEF7B4FE5520FEF7A0FE1120FEF726
:102B8000AEFE642003F08AF92920FEF7A8FE352066
:102B9000FEF7A5FE0020FEF791FE5120FEF79FFEF6
:102BA000FF20FEF78BFE5320FEF799FE2C20FEF748
:102BB00085FE5520FEF793FE8220FEF77FFE2C2037
:102BC000FEF78DFE08BD08B51120FEF788FE7820BF
:102BD00003F064F93620FEF782FE4820FEF76EFE11
:102BE0003A20FEF77CFE5520FEF768FEF020FEF747
:102BF00076FEC320FEF762FEF020FEF770FE962000
:102C0000FEF75CFEB420FEF76AFE0120FEF756FEDA
:102C1000B620FEF764FE0A20FEF750FEA220FEF763
:102C20004DFEB720FEF75BFEC620FEF747FEB9203B
:102C3000FEF755FE0220FEF741FEE020FEF73EFEC5
:102C4000C020FEF74CFE8020FEF738FE1620FEF76F
:102C500035FEC120FEF743FE1920FEF72FFEC220ED
:102C6000FEF73DFEA720FEF729FEC520FEF737FE42
:102C70001620FEF723FEE820FEF731FE4020FEF787
:102C80001DFE8A20FEF71AFE0020FEF717FE002028
:102C9000FEF714FE2920FEF711FE1920FEF70EFEA6
:102CA000A520FEF70BFE3320FEF708FEE020FEF71E
:102CB00016FEF020FEF702FE0720FEF7FFFD0D20B6
:102CC000FEF7FCFD0420FEF7F9FD0520FEF7F6FDFA
:102CD0001420FEF7F3FD3620FEF7F0FD5420FEF73A
:102CE000EDFD4C20FEF7EAFD3820FEF7E7FD13204E
:102CF000FEF7E4FD1420FEF7E1FD2E20FEF7DEFDD9
:102D00003420FEF7DBFDE120FEF7E9FDF020FEF7C1
:102D1000D5FD1020FEF7D2FD1420FEF7CFFD0E20CA
:102D2000FEF7CCFD0C20FEF7C9FD0820FEF7C6FD1E
:102D30003520FEF7C3FD4420FEF7C0FD4C20FEF712
:102D4000BDFD2620FEF7BAFD1020FEF7B7FD1220CC
:102D5000FEF7B4FD2C20FEF7B1FD3220FEF7AEFDEC
:102D6000F020FEF7BCFD3C20FEF7A8FDF020FEF7AA
:102D7000B6FD6920FEF7A2FD782003F08FF8212030
:102D8000FEF7ADFD2920FEF7AAFD08BD08B5FF201E
:102D9000FEF7A5FDFF20FEF791FD9820FEF78EFDC2
:102DA0000620FEF78BFDBC20FEF799FD0120FEF703
:102DB00085FD0F20FEF782FD6120FEF77FFDFF20DD
:102DC000FEF77CFD0120FEF779FD0120FEF776FD80
:102DD0000B20FEF773FD1020FEF770FD3720FEF785
:102DE0006DFD6320FEF76AFDFF20FEF767FDFF2003
:102DF000FEF764FD0120FEF761FD0120FEF75EFD98
:102E00000020FEF75BFD0020FEF758FDFF20FEF7D7
:102E100055FD5220FEF752FD0120FEF74FFD002028
:102E2000FEF74CFD4020FEF749FDBD20FEF757FDA3
:102E30000120FEF743FD2320FEF740FD4520FEF76D
:102E40003DFD6720FEF73AFD0120FEF737FD232008
:102E5000FEF734FD4520FEF731FD6720FEF72EFD1D
:102E6000BE20FEF73CFD0020FEF728FD0120FEF706
:102E700025FDAB20FEF722FD6020FEF71FFD22207E
:102E8000FEF71CFD2220FEF719FD2220FEF716FD9D
:102E90002220FEF713FD2220FEF710FDC720FEF7CB
:102EA0001EFD3620FEF70AFDED20FEF718FD7F20FF
:102EB000FEF704FD0F20FEF701FDC020FEF70FFD19
:102EC0000F20FEF7FBFC0B20FEF7F8FC0A20FEF7B4
:102ED000F5FCFC20FEF703FD0820FEF7EFFCDF20E9
:102EE000FEF7FDFC0020FEF7E9FC0020FEF7E6FC03
:102EF0000020FEF7E3FC0020FEF7E0FC0020FEF7D8
:102F0000DDFC2020FEF7DAFCF320FEF7E8FC74205D
:102F1000FEF7D4FCB420FEF7E2FC0020FEF7CEFC66
:102F20000020FEF7CBFC0020FEF7C8FCF720FEF7E0
:102F3000D6FC8220FEF7C2FCB120FEF7D0FC0020B8
:102F4000FEF7BCFC1320FEF7B9FC1320FEF7B6FC1D
:102F5000F220FEF7C4FC8020FEF7B0FC0420FEF750
:102F6000ADFC4020FEF7AAFC2820FEF7A7FCC120FC
:102F7000FEF7B5FC1720FEF7A1FC8820FEF79EFCAB
:102F80008820FEF79BFC2020FEF798FCE020FEF74F
:102F9000A6FC0020FEF792FC0A20FEF78FFC122010
:102FA000FEF78CFC1020FEF789FC0E20FEF786FC55
:102FB0002020FEF783FCCC20FEF780FC0720FEF7E4
:102FC0007DFC0620FEF77AFC0B20FEF777FC0E2036
:102FD000FEF774FC0F20FEF771FC0D20FEF76EFC6F
:102FE0001520FEF76BFC1020FEF768FC0020FEF7B2
:102FF00065FCE120FEF773FC0020FEF75FFC0B2070
:10300000FEF75CFC1320FEF759FC0D20FEF756FC82
:103010000E20FEF753FC1B20FEF750FC7120FEF73C
:103020004DFC0620FEF74AFC0620FEF747FC0A206E
:10303000FEF744FC0F20FEF741FC0E20FEF73EFC9D
:103040000F20FEF73BFC1520FEF738FC0C20FEF7A6
:1030500035FC0020FEF732FC2A20FEF740FC002061
:10306000FEF72CFC0020FEF729FC0120FEF726FCD1
:10307000DF20FEF723FC2B20FEF731FC0020FEF7BB
:103080001DFC0020FEF71AFC0320FEF717FC1F2092
:10309000FEF714FC3A20FEF722FC5520FEF70EFC4A
:1030A0003620FEF71CFC0020FEF708FC1120FEF77E
:1030B00016FC782002F0F2FE2920FEF710FC142006
:1030C00002F0ECFE2C20FEF70AFC08BD08B5E22059
:1030D000FEF705FC1D20FEF7F1FB0220FEF7EEFBDC
:1030E0000420FEF7EBFB642002F0BAFEE020FEF7BE
:1030F000F6FB0120FEF7E2FB0A2002F0CFFEE02003
:10310000FEF7EDFB0320FEF7D9FB0C2002F0C6FE14
:103110000120FEF7E4FB0A2002F0C0FEE620FEF7E5
:10312000DEFB2F20FEF7CAFBFF20FEF7C7FBFF20C8
:10313000FEF7C4FBB020FEF7D2FB2020FEF7BEFB5B
:103140000020FEF7BBFB0320FEF7B8FB40F21F3068
:10315000FEF7B4FB0120FEF7B1FB40F2DF10FEF7F3
:10316000ADFB0020FEF7AAFBB420FEF7B8FB04205D
:10317000FEF7A4FB40F21F40FEF7A0FB0020FEF785
:103180009DFB2E20FEF79AFB0020FEF797FB002008
:10319000FEF794FB0020FEF791FB0020FEF78EFB6C
:1031A000B620FEF79CFB0220FEF788FB4FF403706D
:1031B000FEF784FB0020FEF781FB1720FEF77EFB65
:1031C0001520FEF77BFB0020FEF778FB0020FEF7C2
:1031D00075FBF020FEF783FB0320FEF76FFB292031
:1031E000FEF77DFBD020FEF77AFB0020FEF766FBA2
:1031F000BE20FEF774FB0520FEF760FBFE20FEF705
:103200005DFB0120FEF75AFB0020FEF757FB002074
:10321000FEF754FB0020FEF751FBB820FEF75FFBE2
:103220000320FEF74BFB0120FEF748FBBA20FEF718
:1032300056FB0120FEF742FB08BD4FF0D843A3F830
:103240007E00A3F88010704708B555214FF47040F8
:10325000FFF7F3FFAA214FF20100FFF7EEFF522123
:103260004FF20200FFF7E9FF08214FF20300FFF7DA
:10327000E4FF01214FF20400FFF7DFFF0D214FF4BF
:103280003040FFF7DAFF0D214BF20100FFF7D5FFC9
:103290000D214BF20200FFF7D0FF34214FF43640EE
:1032A000FFF7CBFF34214BF20160FFF7C6FF34215B
:1032B0004BF20260FFF7C1FF0D214FF43140FFF7E1
:1032C000BCFF0D214BF20110FFF7B7FF0D214BF2B0
:1032D0000210FFF7B2FF34214FF43740FFF7ADFF84
:1032E00034214BF20170FFF7A8FF34214BF202703A
:1032F000FFF7A3FF00214FF43240FFF79EFF0021AC
:103300004BF20120FFF799FF00214BF20220FFF75B
:1033100094FF24214FF43840FFF78FFF24214BF610
:103320000100FFF78AFF24214BF60200FFF785FF1B
:1033300001214FF43F40FFF780FF0F214FF433404E
:10334000FFF77BFF0F214BF20130FFF776FF0F21D4
:103350004BF20230FFF771FF34214FF43940FFF791
:103360006CFF34214BF60110FFF767FF34214BF659
:103370000210FFF762FF08214FF43540FFF75DFFB1
:1033800008214BF20150FFF758FF08214BF2025081
:10339000FFF753FF03214FF44240FFF74EFF242174
:1033A0004FF43A40FFF749FF24214BF60120FFF785
:1033B00044FF24214BF60220FFF73FFF00214FF48A
:1033C0003C40FFF73AFF78214BF60140FFF735FF0D
:1033D00000214BF60240FFF730FF00214FF43D4043
:1033E000FFF72BFF78214BF60150FFF726FF002156
:1033F0004BF60250FFF721FF00214FF43E40FFF74C
:103400001CFF64214BF60160FFF717FF00214FF40A
:103410005140FFF712FF33214DF20110FFF70DFF6E
:1034200000214DF20210FFF708FF34214DF2031086
:10343000FFF703FF00214DF20410FFF7FEFE3A21D3
:103440004DF20510FFF7F9FE00214DF20610FFF7CF
:10345000F4FE4A214DF20710FFF7EFFE00214DF276
:103460000810FFF7EAFE5C214DF20910FFF7E5FEB8
:1034700000214DF20A10FFF7E0FE81214DF20B1002
:10348000FFF7DBFE00214DF20C10FFF7D6FEA62160
:103490004DF20D10FFF7D1FE00214DF20E10FFF797
:1034A000CCFEE5214DF20F10FFF7C7FE01214DF2D2
:1034B0001010FFF7C2FE13214DF21110FFF7BDFEF1
:1034C00001214DF21210FFF7B8FE54214DF21310F6
:1034D000FFF7B3FE01214DF21410FFF7AEFE82217B
:1034E0004DF21510FFF7A9FE01214DF21610FFF75E
:1034F000A4FECA214DF21710FFF79FFE02214DF2E4
:103500001810FFF79AFE00214DF21910FFF795FEF3
:1035100002214DF21A10FFF790FE01214DF21B100F
:10352000FFF78BFE02214DF21C10FFF786FE3421BF
:103530004DF21D10FFF781FE02214DF21E10FFF724
:103540007CFE67214DF21F10FFF777FE02214DF23E
:103550002010FFF772FE84214DF22110FFF76DFE5F
:1035600002214DF22210FFF768FEA4214DF2231034
:10357000FFF763FE02214DF22410FFF75EFEB72134
:103580004DF22510FFF759FE02214DF22610FFF7EC
:1035900054FECF214DF22710FFF74FFE02214DF2CE
:1035A0002810FFF74AFEDE214DF22910FFF745FEF5
:1035B00002214DF22A10FFF740FEF2214DF22B10AE
:1035C000FFF73BFE02214DF22C10FFF736FEFE21E5
:1035D0004DF22D10FFF731FE03214DF22E10FFF7B3
:1035E0002CFE10214DF22F10FFF727FE03214DF284
:1035F0003010FFF722FE33214DF23110FFF71DFE90
:1036000003214DF23210FFF718FE6D214DF23310F9
:10361000FFF713FE00214FF45240FFF70EFE332157
:103620004DF20120FFF709FE00214DF20220FFF7C5
:1036300004FE34214DF20320FFF7FFFD00214DF27F
:103640000420FFF7FAFD3A214DF20520FFF7F5FDC2
:1036500000214DF20620FFF7F0FD4A214DF2072030
:10366000FFF7EBFD00214DF20820FFF7E6FD5C219E
:103670004DF20920FFF7E1FD00214DF20A20FFF78E
:10368000DCFD81214DF20B20FFF7D7FD00214DF22B
:103690000C20FFF7D2FDA6214DF20D20FFF7CDFD46
:1036A00000214DF20E20FFF7C8FDE5214DF20F205D
:1036B000FFF7C3FD01214DF21020FFF7BEFD1321DE
:1036C0004DF21120FFF7B9FD01214DF21220FFF755
:1036D000B4FD54214DF21320FFF7AFFD01214DF24F
:1036E0001420FFF7AAFD82214DF21520FFF7A5FD5A
:1036F00001214DF21620FFF7A0FDCA214DF217203F
:10370000FFF79BFD02214DF21820FFF796FD0021E7
:103710004DF21920FFF791FD02214DF21A20FFF71B
:103720008CFD01214DF21B20FFF787FD02214DF298
:103730001C20FFF782FD34214DF21D20FFF77DFD97
:1037400002214DF21E20FFF778FD67214DF21F2068
:10375000FFF773FD02214DF22020FFF76EFD84215B
:103760004DF22120FFF769FD02214DF22220FFF7E3
:1037700064FDA4214DF22320FFF75FFD02214DF2ED
:103780002420FFF75AFDB7214DF22520FFF755FD04
:1037900002214DF22620FFF750FDCF214DF22720C8
:1037A000FFF74BFD02214DF22820FFF746FDDE21F9
:1037B0004DF22920FFF741FD02214DF22A20FFF7AB
:1037C0003CFDF2214DF22B20FFF737FD02214DF297
:1037D0002C20FFF732FDFE214DF22D20FFF72DFDAD
:1037E00003214DF22E20FFF728FD10214DF22F204E
:1037F000FFF723FD03214DF23020FFF71EFD33219B
:103800004DF23120FFF719FD03214DF23220FFF771
:1038100014FD6D214DF23320FFF70FFD00214FF411
:103820005340FFF70AFD33214DF20130FFF705FD4C
:1038300000214DF20230FFF700FD34214DF203303C
:10384000FFF7FBFC00214DF20430FFF7F6FC3A21B4
:103850004DF20530FFF7F1FC00214DF20630FFF785
:10386000ECFC4A214DF20730FFF7E7FC00214DF256
:103870000830FFF7E2FC5C214DF20930FFF7DDFC78
:1038800000214DF20A30FFF7D8FC81214DF20B30B8
:10389000FFF7D3FC00214DF20C30FFF7CEFCA62140
:1038A0004DF20D30FFF7C9FC00214DF20E30FFF74D
:1038B000C4FCE5214DF20F30FFF7BFFC01214DF2B2
:1038C0001030FFF7BAFC13214DF21130FFF7B5FCB1
:1038D00001214DF21230FFF7B0FC54214DF21330AC
:1038E000FFF7ABFC01214DF21430FFF7A6FC82215B
:1038F0004DF21530FFF7A1FC01214DF21630FFF714
:103900009CFCCA214DF21730FFF797FC02214DF2C3
:103910001830FFF792FC00214DF21930FFF78DFCB3
:1039200002214DF21A30FFF788FC01214DF21B30C5
:10393000FFF783FC02214DF21C30FFF77EFC34219F
:103940004DF21D30FFF779FC02214DF21E30FFF7DA
:1039500074FC67214DF21F30FFF76FFC02214DF21E
:103960002030FFF76AFC84214DF22130FFF765FC1F
:1039700002214DF22230FFF760FCA4214DF22330EA
:10398000FFF75BFC02214DF22430FFF756FCB72114
:103990004DF22530FFF751FC02214DF22630FFF7A2
:1039A0004CFCCF214DF22730FFF747FC02214DF2AE
:1039B0002830FFF742FCDE214DF22930FFF73DFCB5
:1039C00002214DF22A30FFF738FCF2214DF22B3064
:1039D000FFF733FC02214DF22C30FFF72EFCFE21C5
:1039E0004DF22D30FFF729FC03214DF22E30FFF769
:1039F00024FC10214DF22F30FFF71FFC03214DF264
:103A00003030FFF71AFC33214DF23130FFF715FC4F
:103A100003214DF23230FFF710FC6D214DF23330AF
:103A2000FFF70BFC00214FF45440FFF706FC332155
:103A30004DF20140FFF701FC00214DF20240FFF77B
:103A4000FCFB34214DF20340FFF7F7FB00214DF260
:103A50000440FFF7F2FB3A214DF20540FFF7EDFB82
:103A600000214DF20640FFF7E8FB4A214DF20740E6
:103A7000FFF7E3FB00214DF20840FFF7DEFB5C217E
:103A80004DF20940FFF7D9FB00214DF20A40FFF744
:103A9000D4FB81214DF20B40FFF7CFFB00214DF20B
:103AA0000C40FFF7CAFBA6214DF20D40FFF7C5FB06
:103AB00000214DF20E40FFF7C0FBE5214DF20F4013
:103AC000FFF7BBFB01214DF21040FFF7B6FB1321BE
:103AD0004DF21140FFF7B1FB01214DF21240FFF70B
:103AE000ACFB54214DF21340FFF7A7FB01214DF22F
:103AF0001440FFF7A2FB82214DF21540FFF79DFB1A
:103B000001214DF21640FFF798FBCA214DF21740F4
:103B1000FFF793FB02214DF21840FFF78EFB0021C7
:103B20004DF21940FFF789FB02214DF21A40FFF7D1
:103B300084FB01214DF21B40FFF77FFB02214DF278
:103B40001C40FFF77AFB34214DF21D40FFF775FB57
:103B500002214DF21E40FFF770FB67214DF21F401E
:103B6000FFF76BFB02214DF22040FFF766FB84213B
:103B70004DF22140FFF761FB02214DF22240FFF799
:103B80005CFBA4214DF22340FFF757FB02214DF2CD
:103B90002440FFF752FBB7214DF22540FFF74DFBC4
:103BA00002214DF22640FFF748FBCF214DF227407E
:103BB000FFF743FB02214DF22840FFF73EFBDE21D9
:103BC0004DF22940FFF739FB02214DF22A40FFF761
:103BD00034FBF2214DF22B40FFF72FFB02214DF277
:103BE0002C40FFF72AFBFE214DF22D40FFF725FB6D
:103BF00003214DF22E40FFF720FB10214DF22F4004
:103C0000FFF71BFB03214DF23040FFF716FB33217A
:103C10004DF23140FFF711FB03214DF23240FFF727
:103C20000CFB6D214DF23340FFF707FB00214FF4F1
:103C30005540FFF702FB33214DF20150FFF7FDFA2B
:103C400000214DF20250FFF7F8FA34214DF20350F3
:103C5000FFF7F3FA00214DF20450FFF7EEFA3A2194
:103C60004DF20550FFF7E9FA00214DF20650FFF73B
:103C7000E4FA4A214DF20750FFF7DFFA00214DF236
:103C80000850FFF7DAFA5C214DF20950FFF7D5FA38
:103C900000214DF20A50FFF7D0FA81214DF20B506E
:103CA000FFF7CBFA00214DF20C50FFF7C6FAA62120
:103CB0004DF20D50FFF7C1FA00214DF20E50FFF703
:103CC000BCFAE5214DF20F50FFF7B7FA01214DF292
:103CD0001050FFF7B2FA13214DF21150FFF7ADFA71
:103CE00001214DF21250FFF7A8FA54214DF2135062
:103CF000FFF7A3FA01214DF21450FFF79EFA82213B
:103D00004DF21550FFF799FA01214DF21650FFF7C9
:103D100094FACA214DF21750FFF78FFA02214DF2A3
:103D20001850FFF78AFA00214DF21950FFF785FA73
:103D300002214DF21A50FFF780FA01214DF21B507B
:103D4000FFF77BFA02214DF21C50FFF776FA34217F
:103D50004DF21D50FFF771FA02214DF21E50FFF790
:103D60006CFA67214DF21F50FFF767FA02214DF2FE
:103D70002050FFF762FA84214DF22150FFF75DFADF
:103D800002214DF22250FFF758FAA4214DF22350A0
:103D9000FFF753FA02214DF22450FFF74EFAB721F4
:103DA0004DF22550FFF749FA02214DF22650FFF758
:103DB00044FACF214DF22750FFF73FFA02214DF28E
:103DC0002850FFF73AFADE214DF22950FFF735FA75
:103DD00002214DF22A50FFF730FAF2214DF22B501A
:103DE000FFF72BFA02214DF22C50FFF726FAFE21A5
:103DF0004DF22D50FFF721FA03214DF22E50FFF71F
:103E00001CFA10214DF22F50FFF717FA03214DF243
:103E10003050FFF712FA33214DF23150FFF70DFA0F
:103E200003214DF23250FFF708FA6D214DF2335065
:103E3000FFF703FA00214FF45640FFF7FEF9332154
:103E40004DF20160FFF7F9F900214DF20260FFF732
:103E5000F4F934214DF20360FFF7EFF900214DF240
:103E60000460FFF7EAF93A214DF20560FFF7E5F942
:103E700000214DF20660FFF7E0F94A214DF207609C
:103E8000FFF7DBF900214DF20860FFF7D6F95C215E
:103E90004DF20960FFF7D1F900214DF20A60FFF7FA
:103EA000CCF981214DF20B60FFF7C7F900214DF2EB
:103EB0000C60FFF7C2F9A6214DF20D60FFF7BDF9C6
:103EC00000214DF20E60FFF7B8F9E5214DF20F60C9
:103ED000FFF7B3F901214DF21060FFF7AEF913219E
:103EE0004DF21160FFF7A9F901214DF21260FFF7C1
:103EF000A4F954214DF21360FFF79FF901214DF20F
:103F00001460FFF79AF982214DF21560FFF795F9D9
:103F100001214DF21660FFF790F9CA214DF21760AA
:103F2000FFF78BF902214DF21860FFF786F90021A7
:103F30004DF21960FFF781F902214DF21A60FFF787
:103F40007CF901214DF21B60FFF777F902214DF258
:103F50001C60FFF772F934214DF21D60FFF76DF917
:103F600002214DF21E60FFF768F967214DF21F60D4
:103F7000FFF763F902214DF22060FFF75EF984211B
:103F80004DF22160FFF759F902214DF22260FFF74F
:103F900054F9A4214DF22360FFF74FF902214DF2AD
:103FA0002460FFF74AF9B7214DF22560FFF745F984
:103FB00002214DF22660FFF740F9CF214DF2276034
:103FC000FFF73BF902214DF22860FFF736F9DE21B9
:103FD0004DF22960FFF731F902214DF22A60FFF717
:103FE0002CF9F2214DF22B60FFF727F902214DF257
:103FF0002C60FFF722F9FE214DF22D60FFF71DF92D
:1040000003214DF22E60FFF718F910214DF22F60B9
:10401000FFF713F903214DF23060FFF70EF933215A
:104020004DF23160FFF709F903214DF23260FFF7DD
:1040300004F96D214DF23360FFF7FFF855214FF47D
:104040007040FFF7FAF8AA214FF20100FFF7F5F8E8
:1040500052214FF20200FFF7F0F808214FF203005F
:10406000FFF7EBF800214FF20400FFF7E6F8CC2150
:104070004FF43140FFF7E1F800214BF20110FFF758
:10408000DCF805214FF43640FFF7D7F870214FF4E4
:104090003740FFF7D2F870214BF20170FFF7CDF8EF
:1040A00001214FF43840FFF7C8F803214BF6010017
:1040B000FFF7C3F803214BF60200FFF7BEF8032118
:1040C0004BF60300FFF7B9F802214FF43C40FFF72D
:1040D000B4F800214BF60140FFF7AFF800214BF692
:1040E0000240FFF7AAF8D0214FF44940FFF7A5F8A6
:1040F00002214CF60110FFF7A0F850214CF60210F7
:10410000FFF79BF850214CF60310FFF796F850216B
:104110004CF60410FFF791F800214FF45450FFF7CC
:104120008CF855214FF46850FFF787F84FF488500A
:10413000FDF7D5FB782001F093FE4FF42450FDF7F6
:10414000CEFB08BD034B1A894FF0D843A3F87E205D
:10415000704700BFCC0A002070B505460C46404BA6
:104160009B8841F66312934217D045F21052934256
:1041700057D03B4E7089FDF7B2FB280AFDF79EFB36
:10418000E8B2FDF79BFBB089FDF7A9FB200AFDF71C
:1041900095FBE0B2FDF792FB70BD314B9B7953BBB1
:1041A0002F4B1888451BADB2013DADB25889FDF7C4
:1041B00096FB0020FDF782FB0020FDF77FFB280A1D
:1041C000FDF77CFBE8B2FDF779FB254DA889FDF7EB
:1041D00086FB200AFDF772FBE0B2FDF76FFB6888F3
:1041E0000138C0F30F20FDF769FB68880138C0B2C1
:1041F000FDF764FBD0E71A4E7089FDF770FB280AC3
:10420000FDF75CFBE8B2FDF759FB30880138C0F3DD
:104210000F20FDF753FB30880138C0B2FDF74EFB8D
:10422000D3E70F4E7089FDF75AFB280AFDF746FBCE
:104230007089013080B2FDF752FBE8B2FDF73EFB1A
:10424000B089FDF74CFB200AFDF738FBB08901303F
:1042500080B2FDF744FBE0B2FDF730FB9CE700BF06
:10426000CC0A002010B5764B9B79012B10D02BB9CE
:10427000734B9A8841F663139A420FD0013806288F
:1042800000F28880DFE800F078767472706E1600B5
:104290006B4A918841F663129142E8D00728EDD825
:1042A000DFE800F07674707206046E6C002402E0A1
:1042B000802400E0E024624B9B8845F21052934238
:1042C0006AD0362049F24132934207D047F28972D0
:1042D000934203D047F29672934201D144F008040E
:1042E0002146FEF7AAFF564B9B8841F66312934284
:1042F0000AD014F0200F52D0514A118852889142AE
:1043000002D24F480280418045F2105293424FD072
:104310004B4C6089FDF7E3FA0020FDF7CFFA00204F
:10432000FDF7CCFA20880138C0F30F20FDF7C6FA5C
:1043300020880138C0B2FDF7C1FAA089FDF7CFFA95
:104340000020FDF7BBFA0020FDF7B8FA60880138BD
:10435000C0F30F20FDF7B2FA60880138C0B2FDF754
:10436000ADFA10BDA024A6E76024A4E72024A2E7AC
:10437000C024A0E740249EE780249CE740249AE7DD
:10438000C02498E7202496E7602494E7E02492E78D
:10439000A02490E700248EE74FF4585092E7284A73
:1043A000118852889142AFD9254802804180ABE7FD
:1043B000234C6089FDF793FA0020FDF77FFA6089AE
:1043C000013080B2FDF78BFA0020FDF777FA6089A3
:1043D000023080B2FDF783FA20880138C0F30F2045
:1043E000FDF76CFA6089033080B2FDF778FA208817
:1043F0000138C0B2FDF762FAA089FDF770FA00201B
:10440000FDF75CFAA089013080B2FDF768FA002060
:10441000FDF754FAA089023080B2FDF760FA608897
:104420000138C0F30F20FDF749FAA089033080B2AC
:10443000FDF755FA60880138C0B2FDF73FFA90E702
:10444000CC0A002010B51446FFF786FEFFF77AFE6F
:10445000A4B24FF0D843A3F8804010BD0000000084
:1044600010B50446BE20FDF73AFA0520FDF726FAFE
:104470002046FCF717F80CA3D3E90023FCF78EFBCA
:10448000FCF77AF880B2FDF719FA0120FDF716FA69
:10449000FF20FDF713FA0020FDF710FA0020FDF7CA
:1044A0000DFA10BDAFF3008066666666666604406E
:1044B00008B5504B9871002852D1F0221A804FF461
:1044C000A0725A809B8845F21052934221D041F647
:1044D000631293422ED0474A2C2111812A21518107
:1044E0002B21918145F21032934203D047F296720C
:1044F000934206D13F4A4FF4A07111804FF4F071FE
:10450000518049F60602934222D00020FFF7AAFE0E
:1045100008BD384A4FF4305111814FF42851518170
:104520004FF42C5191814FF4F07111804FF4487188
:104530005180D7E72F4A2C2111812B2151812A212B
:1045400091814FF4F07111804FF448715180C9E7A7
:10455000284B4FF4F0721A804FF448725A80D4E717
:10456000244B4FF4A0721A80F0225A809B8845F2A7
:10457000105293420FD041F6631293421CD049F679
:104580000602934218D01B4A2C2111812A21518105
:104590002B2191811DE0174A4FF4305111814FF4C6
:1045A000285151814FF42C5191814FF44871118061
:1045B0004FF4F07151800CE00E4A2C2111812A2118
:1045C00051812B2191814FF4487111804FF4F0718A
:1045D000518045F21032934203D047F296729342D3
:1045E00093D1044B4FF4F0721A804FF4A0725A80AA
:1045F0008BE700BFCC0A002038B505460A4B1A8865
:104600005C8802FB04F400210846FFF7A5FDFFF7D4
:1046100099FD002304E04FF0D842A2F88050013306
:10462000A342F8D338BD00BFCC0A00202DE9F041E9
:1046300098B000240094794B1A6B42F040021A6340
:104640001A6B02F040020092009A01941A6B42F039
:1046500008021A631A6B02F008020192019A02948E
:104660001A6B42F008021A631A6B02F008020292F7
:10467000029A03941A6B42F020021A631A6B02F03A
:1046800020020392039A04941A6B42F002021A6306
:104690001B6B03F002030493049B4FF480551395A6
:1046A000022314930127159716930C23179313A92C
:1046B0005B4800F0D3FB20231393DFF8688113A934
:1046C000404600F0CBFB1026139613A9404600F09D
:1046D000C5FB139513A9544800F0C0FB4FF40043E9
:1046E0001393149713A9514800F0B8FB50484FF0AA
:1046F0002043036003F58273436006238360C46034
:1047000046618461C46144628562C4624FF480433F
:104710000363446384630F230C930D943C230E9333
:10472000129409230593069407930B9405AA0CA9E8
:1047300000F0D2FF322001F0B1FBD320FDF7CFF81B
:10474000FDF7AFF83B4CA080FDF7ABF8A080FDF77C
:10475000A8F8A0800002A080FDF7A3F8A388184362
:1047600080B2A08049F24133984267D1314CA18890
:10477000314801F0EBFCA38847F28972934200F0C4
:104780001B8149F24132934200F0198145F2103207
:10479000934200F0178147F29672934200F0158120
:1047A00045F21052934200F0138149F606029342FB
:1047B00000F0118141F66312934200F00F811D4B0E
:1047C0009B8847F28972934200F00E8149F60602F7
:1047D000934200F0148149F24132934200F00F817C
:1047E00045F21052934200F00A8145F21032934292
:1047F00008D047F29672934204D041F66312934276
:1048000040F007810123059307930948036B8268F1
:1048100005A9406801F0FCFAFBE000BF0038024047
:1048200000180240000C0240001402400004024044
:104830007C0A0020CC0A002010DB00080420FDF7D1
:104840004EF8FDF72EF8A080FDF72BF8A080FDF7BD
:1048500028F8A0800002A080FDF723F8A388184361
:1048600080B2A08048F25253984200F0A180714B70
:104870009A8847F289739A423FF478AFD420FDF7C3
:104880002EF8FDF70EF86B4CA080FDF70AF8A0801B
:10489000FDF707F8A0800002A080FDF702F8A388CA
:1048A000184380B2A08045F2103398423FF45EAFC7
:1048B000D320FDF714F8FCF7F4FFA080FCF7F1FF1C
:1048C000A080FCF7EEFFA0800002A080FCF7E9FFCB
:1048D000A388184380B2A08047F2967398423FF4B1
:1048E00045AF55214FF47040FEF7A7FCAA214FF2C7
:1048F0000100FEF7A2FC52214FF20200FEF79DFCE0
:1049000008214FF20300FEF798FC01214FF204004A
:10491000FEF793FC4FF44540FCF7E1FFFCF7C1FFC5
:10492000A0800002A0804CF20150FCF7D8FFFCF7F9
:10493000B8FFA3881843A080052001F0AFFAA28831
:1049400045F210539A423FF411AFD320FCF7C7FF52
:10495000FCF7A7FFA080FCF7A4FFA080FCF7A1FF55
:10496000A0800002A080FCF79CFFA38803439BB2B9
:10497000A38049F6060293423FF4F8AEA120FCF76B
:10498000AEFFFCF78EFFA080FCF78BFFA08000023B
:10499000A080FCF786FFA38803439BB2A38045F267
:1049A000617293427FF4E2AE41F66312A280DDE6CB
:1049B00047F28972A2805AE7FCF7A2FFFFE6FDF7F3
:1049C00073F8FCE6FDF786F9F9E6FEF7FCF8F6E683
:1049D000FEF73AFCF3E6FEF7D9F9F0E6FEF776FBD0
:1049E0006420FFF73DFDEAE6032305930793124891
:1049F000036B826805A9406801F00AFA09E0022306
:104A0000059307930C48036B826805A9406801F081
:104A1000FFF90020FFF74CFD01224FF40041074849
:104A200000F00EFB4FF6FF70FFF7E6FD18B0BDE893
:104A3000F08100BFCC0A00207C0A00200004024064
:104A40002DE9F04F85B0824688461F469DF838B064
:104A5000BDF83C30019317F0070318BF012303EBA7
:104A6000D703790811FB03F3DBB20293A2F1200311
:104A7000DBB2A7F10C02142A5ED8DFE802F00B5D6E
:104A80005D5D155D5D5D5D5D5D5D1A5D5D5D5D5DE1
:104A90005D5D210003EB4303294A02EB830303938B
:104AA00044464FF000093FE0264A02EB031303930C
:104AB000F6E703EBC303244A02EB83030393EFE718
:104AC000224A02EB83130393EAE7019A21465046F8
:104AD000FFF7B8FC6D00EDB20134A4B21C4B5B884B
:104AE000A34229D9A4EB08039F4210D00136F6B2A5
:104AF000072E15D815F0800FE7D1BBF1000FE9D1D3
:104B0000144B1A6821465046FFF79CFCE2E70AF175
:104B1000010A1FFA8AFA0E4B1B8853450CD94446EA
:104B200009F101095FFA89F9029B994504D2039BB7
:104B300013F809500026DBE705B0BDE8F08F00BF91
:104B40001CDB000890DF000880E50008DCF20008AC
:104B5000CC0A0020040000202DE9F04F83B08246EB
:104B60000D469DF830700D9EBDF838B002441FFA16
:104B700082F90B441FFA83F804460EE0454519D22A
:104B8000CDF804B0002300933B4629462046FFF7AA
:104B900057FF04EB5704A4B201363278A2F1200388
:104BA000DBB25E2B06D84C45E8D35FFA8AF43D446D
:104BB000ADB2E3E703B0BDE8F08F0000F0B589B017
:104BC00000210191194B1A6B42F020021A631A6BF3
:104BD00002F020020192019A02911A6B42F0200227
:104BE0001A631B6B03F020030293029B4FF40077C0
:104BF0000397012504950595022306930C4C03A900
:104C0000204600F02BF94FF48066039603A9204656
:104C100000F024F92A463946204600F011FA2A46C7
:104C20003146204600F00CFA09B0F0BD00380240D1
:104C30000014024010B504460E4B18784FF47A73F6
:104C4000B3FBF0F30C4A1068B0FBF3F000F094F8FB
:104C500068B90F2C01D901200AE0002221464FF04B
:104C6000FF3000F051F8054B1C60002000E00120EF
:104C700010BD00BF0C00002000000020100000202C
:104C800008B50B4B1A6842F400721A601A6842F4B5
:104C900080621A601A6842F480721A60032000F081
:104CA00021F80F20FFF7C6FFFCF7F6FC002008BD37
:104CB000003C0240034A1168034B1B780B4413600D
:104CC000704700BFDC0A00200C000020014B186870
:104CD000704700BFDC0A0020014B1868000C7047C9
:104CE000002004E0074AD36823F4E0631B041B0C94
:104CF000000200F4E060034343F0BF6343F4003379
:104D0000D360704700ED00E000B5194BDB68C3F3DA
:104D10000223C3F1070CBCF1040F28BF4FF0040CB1
:104D200003F1040EBEF1060F18D9033B4FF0FF3E0E
:104D30000EFA0CFC21EA0C0199400EFA03F322EA68
:104D40000303194300280BDB0901C9B200F16040DD
:104D500000F5614080F800135DF804FB0023E5E7EF
:104D600000F00F000901C9B2024B1954F4E700BF6B
:104D700000ED00E014ED00E00138B0F1807F0BD2CF
:104D80004FF0E0235861054AF02182F823100020FB
:104D9000986107221A6170470120704700ED00E01A
:104DA00070B50446866DFFF791FF94F83530DBB29D
:104DB000022B06D080236365002384F83430012061
:104DC00070BD05462268136823F01603136022683D
:104DD000536923F080035361236CE3B122681368A5
:104DE00023F0080313602268136823F001031360A3
:104DF00023681B6813F0010F11D0FFF767FF431BF7
:104E0000052BF5D920236365032084F835000023A2
:104E100084F83430D4E7A36C002BDFD1E3E7E26DF4
:104E20003F239340B360012384F83530002084F899
:104E30003400C5E790F83530DBB2022B03D0802375
:104E4000436501207047052380F8353002681368F8
:104E500023F00103136000207047000000230F2B94
:104E600000F2E48070B582B060E085685E000324E3
:104E7000B44025EA0405CC68B4402C4384604568FE
:104E800025EA02054C68C4F300129A402A434260A6
:104E90005AE0DC08083450F8246003F0070295005B
:104EA0000F22AA4026EA020E0A69AA4042EA0E022E
:104EB00040F824205CE0072200E0002202FA0EF213
:104EC0002A4302345A4D45F824205A4A94686FEA1E
:104ED0000C0224EA0C054E6816F4801F01D04CEA3F
:104EE0000405544CA560E46802EA04054E6816F413
:104EF000001F01D04CEA04054E4CE560646802EAEC
:104F000004054E6816F4003F01D04CEA0405494CF4
:104F10006560246822404D6815F4803F01D04CEA5A
:104F20000402444C226001330F2B7DD801229A40A9
:104F30000C6804EA020C32EA0404F4D14C6804F070
:104F40000304013C012C90D94A6802F00302032AB1
:104F500009D0C4685D000322AA4024EA02048A68DA
:104F6000AA402243C2604A6802F00302022A90D09B
:104F700004684FEA430E032202FA0EF224EA020406
:104F80004A6802F0030202FA0EF2224302604A6803
:104F900012F4403FC7D000220192274A546C44F4D7
:104FA00080445464526C02F480420192019A9C083D
:104FB000A51C1F4A52F8255003F003024FEA820E47
:104FC0000F2202FA0EF225EA02051C4A90423FF433
:104FD00074AF02F5806290421AD002F5806290426E
:104FE00018D002F58062904216D002F5806290429D
:104FF00014D002F58062904212D002F58062904295
:1050000010D002F5806290423FF455AF082255E778
:10501000012253E7022251E703224FE704224DE722
:1050200005224BE7062249E702B070BD704700BF7A
:1050300000380140003C01400038024000000240BE
:105040000AB181617047090481617047436901EACF
:10505000030221EA030141EA024181617047000035
:10506000002800F0E08170B582B00446036813F0B8
:10507000010F3BD09F4B9B6803F00C03042B2CD0FB
:105080009C4B9B6803F00C03082B21D06368B3F59D
:10509000803F4FD0B3F5A02F52D0964B1A6822F420
:1050A00080321A601A6822F480221A606368002B2A
:1050B00050D0FFF70BFE05468E4B1B6813F4003FE4
:1050C00014D1FFF703FE401B6428F5D90320B1E19A
:1050D000884B5B6813F4800FD8D0864B1B6813F4A1
:1050E000003F03D06368002B00F09F81236813F01A
:1050F000020F54D07F4B9B6813F00C0F3ED07D4BBA
:105100009B6803F00C03082B33D0E368002B68D0B6
:10511000794B01221A60FFF7D9FD0546754B1B68D4
:1051200013F0020F54D1FFF7D1FD401B0228F5D92F
:1051300003207FE16F4A136843F480331360B5E7BF
:105140006C4B1A6842F480221A601A6842F480326A
:105150001A60ABE7FFF7BAFD0546664B1B6813F410
:10516000003FC3D0FFF7B2FD401B6428F5D90320F0
:1051700060E1604B5B6813F4800FC6D15D4B1B6828
:1051800013F0020F03D0E368012B40F05081594A1D
:10519000136823F0F803216943EAC103136023680D
:1051A00013F0080F42D063696BB3534B0122C3F86D
:1051B000802EFFF78BFD05464E4B5B6F13F0020F01
:1051C00034D1FFF783FD401B0228F5D9032031E1DC
:1051D000484A136823F0F803216943EAC1031360C6
:1051E000DDE7454B00221A60FFF770FD0546414B95
:1051F0001B6813F0020FD2D0FFF768FD401B022896
:10520000F5D9032016E13C4B0022C3F8802EFFF7AE
:105210005DFD0546374B5B6F13F0020F06D0FFF7BD
:1052200055FD401B0228F5D9032003E1236813F044
:10523000040F77D02F4B1B6C13F0805F33D100230A
:1052400001932C4B1A6C42F080521A641B6C03F0D1
:1052500080530193019B0125284B1B6813F4807F29
:1052600023D0A368012B34D0052B38D0214B1A6FE3
:1052700022F001021A671A6F22F004021A67A3686B
:10528000002B3DD0FFF722FD06461A4B1B6F13F093
:10529000020F46D1FFF71AFD801B41F28833984276
:1052A000F3D90320C6E00025D6E7144A136843F477
:1052B00080731360FFF70AFD0646104B1B6813F45A
:1052C000807FCED1FFF702FD801B0228F5D9032095
:1052D000B0E0084A136F43F001031367CFE7054BB3
:1052E0001A6F42F004021A671A6F42F001021A673D
:1052F000C5E700BF00380240000047420070004090
:10530000FFF7E4FC0646524B1B6F13F0020F08D068
:10531000FFF7DCFC801B41F288339842F3D903206D
:1053200088E0EDB9A369002B00F08380484A9268B9
:1053300002F00C02082A51D0022B17D0454B002254
:105340001A66FFF7C3FC0446414B1B6813F0007F4D
:1053500042D0FFF7BBFC001B0228F5D9032069E00F
:105360003B4A136C23F080531364DBE7394B002274
:105370001A66FFF7ABFC0546354B1B6813F0007F40
:1053800006D0FFF7A3FC401B0228F5D9032051E00B
:10539000E369226A1343626A43EA8213A26A5208EB
:1053A000013A43EA0243E26A43EA0263284A53604D
:1053B000284B01221A66FFF789FC0446244B1B6820
:1053C00013F0007F06D1FFF781FC001B0228F5D9FE
:1053D00003202FE000202DE000202BE0012B2BD01C
:1053E0001B4B5B6803F48001E269914226D103F014
:1053F0003F02216A8A4223D1616A47F6C0721A408D
:10540000B2EB811F1ED103F44031A26A5208013A67
:10541000B1EB024F18D103F07063E26AB3EB026F95
:1054200014D1002006E001207047012002E0012095
:1054300000E0002002B070BD0120FBE70120F9E789
:105440000120F7E70120F5E70120F3E70120F1E76C
:10545000003802400000474208B5314B9B6803F01A
:105460000C03042B57D0082B57D12D4B5A6802F050
:105470003F025B6813F4800F2AD0294B5968C1F3AF
:10548000881C4FEA4C11B1EB0C006EEB0E0E4FEA8C
:105490008E1343EA90638101091A63EB0E03DB006C
:1054A00043EA5173C90011EB0C0C43F1000359029C
:1054B00000234FEA4C2041EADC51FBF77DF8184B02
:1054C0005B68C3F3014301335B00B0FBF3F025E0FD
:1054D000134B5968C1F3881C4FEA4C11B1EB0C0017
:1054E0006EEB0E0E4FEA8E1343EA90638101091AA8
:1054F00063EB0E03DB0043EA5173C90011EB0C0CA4
:1055000043F10003990200234FEA8C2041EA9C51A9
:10551000FBF752F8D3E7034800E0034808BD00BF9B
:105520000038024000127A000024F400002800F045
:105530009B8070B50D4604464F4B1B6803F0070374
:105540008B4208D2CBB24C4A1370136803F00703A6
:105550008B4240F08B80236813F0020F17D013F0BA
:10556000040F04D0454A936843F4E05393602368E2
:1055700013F0080F04D0414A936843F460439360EA
:105580003E4A936823F0F003A1680B4393602368BD
:1055900013F0010F32D06368012B21D09A1E012A2B
:1055A00025D9364A126812F0020F61D033498A6851
:1055B00022F0030213438B60FFF788FB06462F4B54
:1055C0009B6803F00C036268B3EB820F16D0FFF701
:1055D0007DFB801B41F288339842F0D9032042E0E2
:1055E000264A126812F4003FE0D101203BE0234A32
:1055F000126812F0007FD9D1012034E01E4B1B68E5
:1056000003F00703AB4207D9EAB21B4B1A701B68C1
:1056100003F00703AB422DD1236813F0040F06D02B
:10562000164A936823F4E053E1680B4393602368C0
:1056300013F0080F07D0114A936823F460432169DF
:1056400043EAC1039360FFF707FF0C4B9B68C3F36A
:1056500003130B4AD35CD8400A4B18600A4B1868F6
:10566000FFF7E8FA002070BD012070470120FAE73B
:105670000120F8E70120F6E7003C02400038024034
:10568000F8DA00080000002010000020014B186824
:10569000704700BF0000002008B5FFF7F7FF044B7C
:1056A0009B68C3F38223034AD35CD84008BD00BF84
:1056B0000038024008DB000808B5FFF7E7FF044B9D
:1056C0009B68C3F34233034AD35CD84008BD00BF94
:1056D0000038024008DB000840B370B50E4615469E
:1056E000044690F84930E3B1214651F8080B00F028
:1056F00033FBA2683146206800F062FB236BA2688E
:105700002946606800F084FB2268A16852F82130C5
:1057100043F0010342F82130012384F8493000208E
:1057200070BD80F84830FBF7B3FDDDE7012070471E
:10573000026802F10C0353E8003F23F490730C322B
:1057400042E800310029F3D1026802F1140353E862
:10575000003F23F00103143242E800310029F3D165
:10576000036B012B05D0202380F842300023036314
:105770007047026802F10C0353E8003F23F0100366
:105780000C3242E800310029F3D1ECE790F84130C7
:10579000DBB2212B01D0022070478368B3F5805F14
:1057A00017D0036A5A1C02621A7803685A60C38CC5
:1057B0009BB2013B9BB2C3844BB90268D36823F010
:1057C0008003D3600268D36843F04003D3600020B5
:1057D00070470369002BE4D1036A1B880268C3F396
:1057E00008035360036A02330362E0E738B50446F6
:1057F0000268136923F44053C1680B431361836843
:105800000269134342691343C2691A430168CB68B2
:1058100023F4164323F00C031343CB60026853694F
:1058200023F4407381690B4353610368314A934207
:1058300006D002F58062934202D0FFF72DFF01E00F
:10584000FFF73AFFE369B3F5004F29D000210318B1
:1058500049411B1841F10001C90041EA5371DB00C5
:10586000181863684FEA83024FEA937341F100010D
:10587000FAF7A2FE204DA5FB00325109642303FB79
:1058800011031B013233A5FB03235B0903F0F00274
:1058900002EB011203F00F03216813448B6038BD43
:1058A0000023021843EB0301121841F10001C90063
:1058B00041EA5271D200101841F100016268921859
:1058C0005B41FAF779FE0C4DA5FB003251096423C8
:1058D00003FB1103DB003233A5FB03235B095A00F2
:1058E00002F4F87202EB011203F00703216813447B
:1058F0008B60D4E7001001401F85EB5160B310B5F9
:10590000044690F8413013B3242384F841302268D0
:10591000D36823F40053D3602046FFF767FF226863
:10592000136923F4904313612268536923F02A0317
:1059300053612268D36843F40053D360002060644D
:10594000202384F8413084F84230606310BD80F831
:105950004030FBF743FFD7E701207047704708B599
:105960000168CA6822F04002CA60202280F8412003
:10597000FFF7F4FF002008BD704708B5806B0023D7
:10598000C385C384FFF7F8FF08BD704790F8423025
:10599000DBB2222B69D18368B3F5805F4FD0826A76
:1059A000B3F5805F04D0002B56D10369002B53D18F
:1059B00003685B681370836A01338362C38D9BB293
:1059C000013B9BB2C385002B51D100B583B0026867
:1059D000D36823F02003D3600268D36823F4807374
:1059E000D3600268536923F001035361202380F8D8
:1059F000423000234363036B012B33D10023036345
:105A0000026802F10C0353E8003F23F010030C324C
:105A100042E800310029F3D103681A6812F0100F30
:105A200006D0002201921A6801925B680193019BE3
:105A3000818DFFF7AAFF002003B05DF804FB026927
:105A4000002AACD1826A03685B68C3F30803138041
:105A5000836A02338362B1E703685B6803F07F0304
:105A60001370A8E700F0AAFAE5E7022070470020CB
:105A70007047000030B583B0044602681368D068F0
:105A8000516913F00F0505D113F0200F02D010F06B
:105A9000200F19D12DB111F0010119D110F4907F0F
:105AA00016D1216B01297DD013F0800F03D010F0A7
:105AB000800F40F0198113F0400F03D010F0400F19
:105AC00040F0168103B030BD2046FFF75FFFF9E7D5
:105AD00013F0010F06D010F4807F03D0626C42F007
:105AE0000102626413F0040F04D019B1626C42F039
:105AF0000202626413F0020F04D019B1626C42F02A
:105B00000402626413F0080F07D010F0200F00D1D8
